:020000040800F2
:100000001004002035250008892500088D250008EA
:10001000912500089525000899250008000000009A
:100020000000000000000000000000009D25000806
:10003000A125000800000000A5250008552500089E
:10004000A9250008AD250008B1250008B525000840
:10005000B9250008BD250008C1250008C5250008F0
:10006000C9250008CD250008D1250008D5250008A0
:10007000D9250008DD250008E1250008E525000850
:10008000E9250008ED250008F1250008F525000800
:10009000F9250008FD2500080126000805260008AE
:1000A000092600080D26000811260008152600085C
:1000B000192600081D26000821260008252600080C
:1000C000292600082D2600083126000835260008BC
:1000D000392600083D26000841260008452600086C
:1000E000492600084D26000851260008552600081C
:1000F000592600085D2600086126000865260008CC
:10010000692600086D26000871260008752600087B
:10011000792600087D260008592500088126000858
:1001200085260008892600088D26000891260008EB
:1001300095260008992600089D260008A12600089B
:10014000A5260008A9260008AD260008B12600084B
:10015000B5260008B9260008BD260008C1260008FB
:10016000C5260008C9260008CD260008D1260008AB
:10017000D5260008D9260008DD260008000000006A
:10018000E1260008E526000838B5040001D1012069
:1001900032BD94F82000002802D1204600F05AFA1F
:1001A0002068016821F00201016000F0E1FA0546D3
:1001B0002068416889070DD500F0DAFA401B0B284A
:1001C000F6D3606A40F400306062052084F82000B5
:1001D000012032BD016841F00101016000F0C8FA60
:1001E000054620684168C9070DD400F0C1FA401BDC
:1001F0000B28F6D3606A40F400306062052084F872
:100200002000012032BD217E0129016803D141F087
:100210008001016002E021F0800101602068617EC0
:100220000129016803D141F04001016002E021F0A1
:10023000400101602068A17E0129016803D141F0DD
:100240002001016002E021F0200101602068E17ED0
:100250000129016803D121F01001016002E041F0A1
:10026000100101602068217F0129016803D141F05C
:100270000801016002E021F0080101602068617F4F
:100280000129016803D141F00401016002E021F07D
:1002900004010160A068E1680843216908436169BD
:1002A00008436168491E08432168C86100206062F4
:1002B000012084F82000002032BDF0B490F8202006
:1002C000012A01D0022A67D14D48026842F001029A
:1002D0000260026822F47C52026002684B6A42EAC1
:1002E0000322026001220B7D03F01F039A40D343D7
:1002F000C4691C40C461CC69002C15D1C4681C4081
:10030000C460404C4D6904EBC505CE684F68C7EA30
:100310000646C5F840624D6904EBC5048D680E6859
:10032000C6EA0545C4F84452CC69012C15D1C4680D
:100330001443C460334C4D6904EBC5050E684F6827
:10034000C7EA0646C5F840624D6904EBC5048D68EE
:10035000CE68C6EA0545C4F844528C69002C44684E
:1003600002D11C40446001E0144344600C69002C3D
:1003700003D144692340436102E04369134343616D
:10038000096A012902D1C1691143C16101684908A3
:1003900049000160002004E0416A41F4802141628B
:1003A0000120F0BC704738B5044694F820000128BD
:1003B0001FD1022084F82000206801684908490004
:1003C000016000F0D5F9054620684068C0070DD5EA
:1003D00000F0CEF9401B0B28F6D3606A40F40030E1
:1003E0006062052084F82000012032BD0020606298
:1003F00032BD606A40F400206062012032BD00001E
:100400000066004000640040F0B490F820400568A9
:10041000AD68012C01D0022C5ED115F0E05F55D003
:10042000C5F30164032C05D3416A41F40001416224
:10043000012056E00125A5401D60230104681C44ED
:10044000CD688E68002E05D10E6845EA4655C4F881
:10045000805105E04F6846EAC7063543C4F880512D
:100460000C6905681D44C5F88441097D012907D13F
:1004700001681944D1F8844144F48074C1F884417E
:10048000D1799479240444EA0161547941EA042140
:100490001479214304681C44C4F88C11D1789478F1
:1004A000240444EA0161547841EA0421127811439A
:1004B00002681A44C2F8881100681844D0F8801104
:1004C00041F00101C0F8801100200AE0416A41F4C6
:1004D00000114162012004E0416A41F4802141623F
:1004E0000120F0BC704770B490F82040012C02D07D
:1004F000022C40F08C800568002909D1EC6814F0CA
:10050000030F0FD1416A41F400114162012083E0E1
:100510002C6914F0030F05D1416A41F400114162C6
:10052000012079E005EB0115D5F8B05115F004056F
:100530009560066806EB0116D6F8B05102D16D0D34
:10054000156001E0ED085560056805EB0115D5F86B
:10055000B051C5F34005D560056805EB0115D5F828
:10056000B45105F00F051561056805EB0115D5F8C7
:10057000B451C5F307259561056805EB0115D5F85C
:10058000B4512D0C5561026802EB0112D2F8B8216A
:100590001A70026802EB0112D2F8B821120A5A70DE
:1005A000026802EB0112D2F8B821120C9A700268AC
:1005B00002EB0112D2F8B821120EDA70026802EBD7
:1005C0000112D2F8BC211A71026802EB0112D2F8B2
:1005D000BC21120A5A71026802EB0112D2F8BC2146
:1005E000120C9A71026802EB0112D2F8BC21120EB1
:1005F000DA710068002904D1C16841F02001C160AE
:1006000003E0016941F020010161002004E0416A3A
:1006100041F480214162012070BC704782B000200B
:1006200000904C48416841F480414160416801F4C8
:1006300080410091009900210091016841F08051B2
:100640000160006800F0805000900098072002B020
:1006500000F0EDB810B586B0044601A8142100F0F2
:1006600005F920683C49884224D1002000903B488D
:10067000016941F000710161016901F000710091AF
:10068000009900210091016841F0080101600068B3
:1006900000F00800009000980320019002200290D2
:1006A00000200390032004900920059001A92C4804
:1006B00000F0E0F806B010BD80B500682949884216
:1006C00015D1002000902348016841F0100101601D
:1006D000006800F0100000900098002211463620BB
:1006E00000F0A6F83620BDE8024000F0B0B801BD29
:1006F00010B586B0044601A8142100F0B7F82068B0
:100700001949884224D1002000901448016941F41D
:1007100000310161016901F400310091009900216B
:100720000091016841F001010160006800F00100E2
:10073000009000980C20019002200290012003906C
:10074000032004900720059001A9084800F092F8C2
:1007500006B010BD4038024000640040303802400E
:10076000000C024000100040004400400000024025
:1007700001484068704700BF0000002035490A6802
:100780004FF6FF031A40000200F4E0601043324AC3
:100790001043086070472F480068C0F3022070477C
:1007A000002807D4012100F01F0291402B4A400984
:1007B00042F8201070470901020002D428488154F1
:1007C0007047284802F00F02104400F8041C7047DC
:1007D00010B400F00700C0F10703052B00D3042379
:1007E000041D072C01D2002000E0C01E012404FAE1
:1007F00003F35B1E1940814004FA00F0401E1040D4
:10080000084310BC704710B5401EB0F1807F01D383
:10081000012010BD144C60600F214FF0FF30FFF736
:10082000CAFF0020A06007202060002010BDA5E7BF
:1008300070B504460D461646FFF7ADFF3246294611
:10084000FFF7C6FF01462046BDE87040B3E7A7E7C3
:10085000D9E700000CED00E00000FA0500E100E03F
:1008600000E400E018ED00E010E000E0002200F0FD
:10087000F7B80000F8B4002225E04FF0080C0CFA9D
:1008800006F63E4345F824606A4C2668DD432E4058
:100890004F68FF0300D51E43266066682E404F68F0
:1008A000BF0300D51E436660A6682E404F68FF0256
:1008B00000D51E43A660E66835404E68B60200D5F6
:1008C0001D43E560521C102A80F0A380012303FA27
:1008D00002F40B682340A342F4D14D68022D01D0ED
:1008E000122D12D1D50800EB8506356A970007F066
:1008F0001C074FF00F0C0CFA07FC25EA0C05D1F889
:1009000010C00CFA07F73D4335620568560003270F
:10091000B740FF433D4091F804C00CF0030C0CFAC3
:1009200006FC4CEA050505604D68012D05D0022D39
:1009300003D0112D01D0122D11D185683D40D1F881
:100940000CC00CFA06FC4CEA05058560456825EAF2
:1009500004044D68C5F3001595402C434460C568F8
:1009600007EA05048D68B5402C43C4604C68E40078
:10097000A8D500240094304C256845F480452560B6
:10098000246804F480440094009C94082B4D55F88E
:1009900024C0970007F00C060F27B7402CEA070782
:1009A000DFF89CC0604502D14FF0000C67E7DFF82C
:1009B00094C0604502D14FF0010C60E7DFF888C0B9
:1009C000604502D14FF0020C59E7DFF880C0604566
:1009D00002D14FF0030C52E7DFF874C0604502D13A
:1009E0004FF0040C4BE7DFF86CC0604502D14FF0CC
:1009F000050C44E7DFF860C0604502D14FF0060CFB
:100A00003DE7DFF858C060457FF437AF4FF0070C83
:100A100035E7F1BC704700690840401E8041C04383
:100A2000C00F7047002A01D08161704709048161BD
:100A300070470000003C0140443802400838014043
:100A4000000002400004024000080240000C024086
:100A5000001002400014024000180240001C024036
:100A600000B500BF130096469446103928BFA0E891
:100A70000C50FAD85FEA417C28BF0CC048BF40F850
:100A8000042BC90728BF20F8022B48BF00F8012B10
:100A900000BD000080B500F045FA00F063FA00F0F8
:100AA00075FA00F07BFA00F087FA00F093FA00F094
:100AB0009FFA00F0B2FA00F04BFC00F094FC00F05A
:100AC000ABFC00F0B2FC00F0B9FC00F0C0FC00F0A0
:100AD00013FD00F078FDBDE8014000F01EBE80B5BA
:100AE00000F05BFEBDE8014000F019BA704780B528
:100AF000FFF7D0FF00F080FE00F00BF800F0B5F833
:100B000000F09BF800F073F800F057F8FFF7E7FFEC
:100B1000FEE700B593B006A80FF2BC3191EC0C0BC8
:100B200080EC0C0B01A81421FFF7A0FE0020009020
:100B3000D848016841F080510160006800F08050A1
:100B40000090009800200090D348016841F4804153
:100B50000160006800F48040009000980120069039
:100B60004FF48030079002200C904FF480000D90DD
:100B700004200E90A8200F900220109007201190C2
:100B800006A800F053FE002801D000F0A3F90F20C2
:100B9000019002200290002003904FF4A050049096
:100BA0004FF480500590052101A800F0B9FF0028FE
:100BB00001D000F08FF913B000BD80B5B748B84937
:100BC0000160A82141604FF0804181600021C16037
:100BD0004FF4003101610021416181618183FFF7A0
:100BE000D3FA002802D0BDE8014073E101BD1CB575
:100BF0000FF21430D0E90023CDE90023A94CAA4814
:100C0000206000206060A0604AF20F40E060002099
:100C1000A061204601F062F8002801D000F05AF9E6
:100C200010200090002001906946204601F092F9C2
:100C3000002801D000F04EF913BD80B59B489C49B7
:100C400001604FF49641416000218160C160016103
:100C50000C21416100218161C16101F09BF90028F3
:100C600002D0BDE8014035E101BD2DE9F04387B078
:100C700001A81421FFF7FAFD002000908D480168BB
:100C800041F010010160016801F01001009100992C
:100C900000210091016841F004010160016801F048
:100CA00004010091009900210091016841F0800148
:100CB0000160016801F0800100910099002100911C
:100CC000016841F001010160016801F0010100913A
:100CD000009900210091016841F002010160016862
:100CE00001F002010091009900210091016841F09A
:100CF00008010160006800F00800009000986E4C48
:100D0000002208212046FFF78DFE6C4D012211467E
:100D10002846FFF787FE4FF21006694F0022314642
:100D20003846FFF77FFE0820019001200290002046
:100D30000390049001A92046FFF79CFD012001903B
:100D4000029000200390049001A92846FFF792FD2D
:100D500008200190022002900020039004900520BA
:100D6000059001A92846FFF785FD0120019055480F
:100D7000029000200390DFF8508101A94046FFF760
:100D800079FD102001900220029000200390049031
:100D90000620059001A94046FFF76CFDE020019078
:100DA000022002900020039004900520059001A9E4
:100DB0004046FFF75FFD0420019000200290039061
:100DC000DFF8089101A94846FFF754FD4FF4806011
:100DD00001900220029000200390049005200590CD
:100DE00001A94846FFF746FD019601200290002028
:100DF0000390049001A93846FFF73CFD4FF4A4503E
:100E0000019002200290002003900490062005909B
:100E100001A92846FFF72EFD4FF400700190002035
:100E20000290039001A94046FFF724FD4FF4E050E3
:100E30000190022002900020039004900A20059067
:100E400001A94046FFF716FD2020019000200290E6
:100E5000039001A93846FFF70DFD4FF41070019083
:100E6000122002900120039000200490042005909D
:100E700001A94846FFF7FEFC0220019014480290A9
:100E80000020039001A92046FFF7F4FC07B0BDE85D
:100E9000F08300004038024000700040D40400207D
:100EA000006400405404002000100040940400201E
:100EB0000044004030380240001002400008024068
:100EC000000C02400000111000000240000402402B
:100ED00000001210FEE7000000000000000000000B
:100EE0000000000000000000000000000000000002
:100EF00000000000000000000000000000000000F2
:100F000000000000000000000000000000000000E1
:100F10000649884202D106480068004770470348E6
:100F200000F0F5BE034802490860704754040020F1
:100F300094050020ED0A0008104800680068400988
:100F400000F0010070470D4800684068C0B270476B
:100F50000A490968486070476FF02000074909682E
:100F60000860704705486FF04001026811606FF03B
:100F70002001006801607047000000009404002018
:100F800001210148FFF747BD000002407047000003
:100F900002464FF400410448FFF744BD00224FF4DD
:100FA00000410148FFF73EBD000C024002464FF4ED
:100FB00000510448FFF736BD00224FF400510148AC
:100FC000FFF730BD000C024002464FF48051044848
:100FD000FFF728BD00224FF480510148FFF722BDE2
:100FE000000C024002464FF480410448FFF71ABD4E
:100FF00000224FF480410148FFF714BD000C02406D
:1010000010B5002404E00C4951F820008047641C0E
:10101000E4B220460728F6DB10BD0020074A064B45
:1010200002E043F82120401CC0B201460729F8DB4A
:10103000034804490860704740050020ED0A000895
:10104000011000089405002080B500F069F8002820
:101050000AD0C948807C002806D02420FFF778FFFA
:101060000FF20900C549886101BD000080B500F09C
:1010700057F800280BD0C048C07CFFF769FFC04874
:101080000021017041700FF20900BC49886101BD67
:1010900070B500F045F800281BD0B94D2878B64C43
:1010A00021180E7D697871186970401C28703046CF
:1010B000FFF74EFF242E04D10FF21900AF498861CB
:1010C00070BD2878E17C884203D10FF23500AB492E
:1010D000886170BD80B500F023F800280FD0002093
:1010E000FFF736FFA548A6490978A34AD27C91426A
:1010F00003D10FF20D01816101BDA249816101BDE2
:1011000080B500F00DF8002809D09D484078FFF721
:101110001FFF0020984988749B489849886101BD49
:101120009A480178491C0170C9B2042901D20020F3
:101130007047002101700120704780B500F0F9F878
:1011400000280FD092488178242906D100214170CF
:101150000FF215008949886001BD8748012180F898
:101160002510417001BD000038B500F0CBF8002813
:101170002FD000F0D4F8012808D17F4A012002F1D5
:1011800024014870507083487C49886000F0D1F891
:1011900000281ED07E48002141708378764A02F1F3
:1011A000240476491D0005D103256570012555707D
:1011B000784D8D60112B05DB042565700125557078
:1011C000744A8A60237000220270C2700FF2050018
:1011D000886031BD10B500F095F800282ED000F0E1
:1011E0009EF8012809D16448012100F124025170C0
:1011F000417068486149886010BD00F09AF8002885
:101200001CD06349002048708A780B785A48C4186B
:10121000A270CC781419CC705B1C0B70242A04D1FA
:101220000FF21D005549886010BD90F82400DBB214
:10123000834203D10FF271005049886010BD000055
:1012400010B500F05FF800282CD000F068F80128F5
:1012500009D14948012100F12402517041704D48E3
:101260004649886010BD00F064F800281AD048494B
:1012700000204870404800F12402404B8C78002C3C
:1012800006D005215170012141704248986010BD7F
:1012900008781178884202D23F48986010BD0FF25A
:1012A0000900986010BD000010B500F02BF8002870
:1012B00027D000F034F8012808D12F48012180F808
:1012C0002510417033482D49886010BD00F031F879
:1012D000002816D02E4900204870284A2D4B264859
:1012E0008C78C9788C4206D1002180F82510012124
:1012F0004170936010BD062180F8251001214170D6
:10130000936010BD21484178491C4170C9B2002941
:1013100001D10020704700214170012070471C4816
:101320004178491C4170C9B208298041C043C00FAF
:10133000704780B5FFF700FE002801D1002002BDF4
:10134000FFF701FE12498870FFF706FE012002BD7B
:10135000094801210170002141700C4900220A70E6
:1013600082744A70114680F825100448064981614C
:101370000849816070470000FC04002040050020FF
:101380009E05002091100008491000089C050020CF
:10139000980500203B110008D511000810B5184C25
:1013A0006068401C606014281CD300206060FFF758
:1013B000E7FD0128A0680AD10A2813D0401CA060CC
:1013C0000A280FD301202070A070607010BD002883
:1013D00008D0401EA06005D1012020700020A07020
:1013E0000120607010BD064800210180022181703B
:1013F000002141600521816002480349086070476F
:10140000700500209D130008400500200120FFF713
:10141000BFBD0020FFF7BCBD0020FFF7B9BD012014
:10142000FFF7C4BD0020FFF7C1BD0020FFF7BEBD20
:101430000120FFF7C9BD0020FFF7C6BD0020FFF760
:10144000C3BD0120FFF7CEBD0020FFF7CBBD0020BC
:10145000FFF7C8BD002006E02C49014489782C4ADA
:1014600002449170401C0428F6DB70470020284A93
:1014700000E0401CC0B20146042905DA1144897815
:10148000C907F6D50220704700207047002005E00C
:101490001F4A0244D27901440A75401C1B490428A2
:1014A000F6DB0420C874704718484178002900D141
:1014B000704710B500214170154C0121217090F842
:1014C0002500002802D00846607010BDFFF7C2FF5B
:1014D000FFF7CCFF607010BD38B50C4CA07C012824
:1014E00009D00B4DA879002805D0FFF7CFFF0120C8
:1014F000A0740020A87131BD0548002101808171D0
:1015000004480549C160054941617047FC04002059
:101510007C05002040050020A9140008D91400080B
:1015200010B52E4CA068401CA060B0F5167F10D3FB
:101530000020A060FFF76AFF0FF2190028494860F9
:101540000122214644F6A00000F017F92078401C43
:10155000207010BD10B5214CA068401CA060B0F5F3
:10156000C87F0BD304F10C0000F0FCF80020A06051
:10157000FFF74FFF0FF209001949486010BD000046
:1015800016488168491C8160B1F57A7F00D27047A6
:1015900080B500218160FFF739FF0FF20900104983
:1015A000486001BD0D488168491C8160B1F5FA6F42
:1015B00000D2704780B500218160FFF72AFF0948FB
:1015C0000749486001BD80B5044800210170816071
:1015D000FFF71FFF03480249486001BD5C0500207A
:1015E000400500202115000858480178002903D142
:1015F00001210170FFF713BF00210170FFF712BF37
:10160000002006E051490144097A514A0244D1714F
:10161000401C0428F6DB7047002006E04C490144DA
:1016200089784A4A02441171401C0428F6DB70474D
:10163000002001E0401CC0B2042807DA43490144FD
:101640000979B1EB400FF5D00120704700207047B9
:10165000002005E03D4901440A7952080A72401C05
:101660000428F7DB70473B480078002804D00FF2CD
:101670000D003949086101E07047000035484178A4
:10168000002900D1704780B5002141708078002882
:101690000FD008462D494870FFF7D6FEFFF7CBFE66
:1016A000FFF7AEFF01202A4988710FF209002A498D
:1016B000086101BD10B525484178491C4170C9B287
:1016C000C82907D100214170FFF7BBFE23482249FA
:1016D000086110BD1E4C207800281DD0002020700D
:1016E0001E481D490861FFF77FFF6078002803D07E
:1016F000BDE81040FFF7A5BEFFF78EFFFFF798FF8C
:10170000012803D1BDE81040FFF792BEFFF7A0FF0C
:10171000BDE81040FFF78FBE10BD10B50B4C002088
:1017200060702070FFF77EFEFFF785FEFFF78CFEEE
:10173000002002E021440872401CC0B20146042986
:10174000F8DB07480449086110BD00008805002047
:101750007C05002070050020400500207D16000853
:101760006716000880B50346214A00211F48FEF78E
:10177000BAFE401E8041C00F02BD10B51D4C206056
:10178000226104F140030A4621461848FEF73CFE58
:10179000401E8041C043C00F10BD10B51548002148
:1017A00041608160C160017544F6A0018161002142
:1017B000C1610162416281620D21C1620021016348
:1017C000012141638163094C00F118012046FEF7B5
:1017D00074FD002801D0012010BD2046FEF7E3FD76
:1017E000401E8041C043C00F10BD0000D404002043
:1017F000240500201004002080B50B48016841F446
:1018000000710160016841F480610160016841F488
:10181000807101600320FFF70AF8002000F026FD28
:10182000FEF7FCFE002002BD003C02402DE9F04125
:1018300082B0040016D0B64D2078C0074BD5A868FA
:1018400000F00C00042807D0A86800F00C0008285D
:101850000AD16868400207D5286880033BD56068D4
:10186000002838D1012050E16068B0F5803F04D1F4
:10187000286840F48030286012E0B0F5A02F286876
:1018800007D140F480202860286840F48030286028
:1018900006E020F480302860286820F4802028604A
:1018A000606800280BD0FEF763FF064628688003B7
:1018B00011D4FEF75DFF801B6528F7D322E1FEF708
:1018C00057FF06462868800305D5FEF751FF801BA9
:1018D0006528F7D316E12078800718D5A86810F09E
:1018E0000C0F07D0A86800F00C00082824D1686805
:1018F000400221D42868800702D5E0680128B1D1D0
:10190000286820F0F800216940EAC10028602078AA
:10191000000747D57F486169002935D00121016062
:10192000FEF726FF0646686F80073BD4FEF720FFD0
:10193000801B0328F7D3E5E0774FE068002815D037
:1019400001203860FEF714FF06462868800705D49A
:10195000FEF70EFF801B0328F7D3D3E0286820F0A2
:10196000F800216940EAC1002860D0E70020386013
:10197000FEF7FEFE064628688007C8D5FEF7F8FE8B
:10198000801B0328F7D3BDE000210160FEF7F0FEC5
:101990000646686F800705D5FEF7EAFE801B032820
:1019A000F7D3AFE02078400767D50027286CC00048
:1019B0000BD438460090286C40F080502864286C86
:1019C00000F08050009000980127DFF85081D8F88F
:1019D0000000C00512D4D8F8000040F48070C8F8A8
:1019E0000000FEF7C5FE0646D8F80000C00505D485
:1019F000FEF7BEFE801B0328F6D383E0A068012813
:101A000004D1286F40F00100286711E00528286FF5
:101A100007D140F004002867286F40F001002867D4
:101A200006E0400840002867286F20F0040028677F
:101A3000A06800280DD0FEF79BFE0646286F8007A1
:101A400015D4FEF795FE801B41F289318842F5D30B
:101A500058E0FEF78DFE0646286F800707D5FEF793
:101A600087FE801B41F289318842F5D34AE0012F7D
:101A700003D1286C20F080502864A069002843D04E
:101A8000A96801F00C0108293FF4ECAE224F0228AE
:101A90002BD100203866FEF76BFE064628688001D1
:101AA00005D5FEF765FE801B0328F7D32AE0E06921
:101AB000216A0843616A40EA8110A16A891EC9034C
:101AC000090C50EA0140E16A40EA016068600120C7
:101AD0003866FEF74DFE06462868800114D4FEF7EE
:101AE00047FE801B0328F7D30CE000203866FEF782
:101AF0003FFE06462868800106D5FEF739FE801BAA
:101B00000328F7D3032000E00020BDE8F68100BFE2
:101B100000380240800E47420000474200700040FB
:101B20002DE9F04104460D46002C5BD04C4E306848
:101B300000F00F00A84205D23570306800F00F00A9
:101B4000A8424FD12068474F810712D5400703D5DF
:101B5000B86840F4E050B8602078000703D5B86852
:101B600040F46040B860B86820F0F000A168084315
:101B7000B8602078C0072AD56068012803D1396889
:101B800089030BD42EE0022801D0032803D1396841
:101B9000890103D426E03968890723D5B968890803
:101BA00050EA8100B860FEF7E3FD8046B86800F0B7
:101BB0000C006168B0EB810F09D0FEF7D9FDA0EBF6
:101BC000080041F289318842F0D303202DE03068CB
:101BD00000F00F00854207D23570306800F00F002A
:101BE000A84201D0012020E02078400705D5B86840
:101BF00020F4E050E1680843B8602078000706D57B
:101C0000B86820F46040216940EAC100B86000F083
:101C100033F81549BA68C2F30312895CC840134906
:101C20000860002000F022FB0020BDE8F0810F4892
:101C30000068704780B5FFF7FAFF0E490C4A12683A
:101C4000C2F38222895CC84002BD80B5FFF7EFFF76
:101C50000849074A1268C2F34232895CC84002BD93
:101C6000003C024000380240042400080C00002020
:101C7000083802408025000810B5154C606800F057
:101C80000C00042802D0082802D01EE0114810BD24
:101C9000206800F03F020023206840022068C0F363
:101CA000881005D50B49A1FB000100F003FB04E0FF
:101CB0000949A1FB000100F0FDFA2168C1F30141CF
:101CC000491C4900B0FBF1F010BD034810BD00BF36
:101CD0000438024000127A000024F40038B50400F1
:101CE00001D1012032BD04F13C056878002804D1FF
:101CF000002028702046FEF7DFFC02206870211DBE
:101D0000206800F0BEF801206870002032BD016834
:101D1000CA6842F00102CA600068816801F00701E8
:101D2000062903D0016841F00101016000207047DD
:101D300010B5044620680169890717D5C16889076D
:101D400014D56FF0020101610120207720688069BD
:101D500010F0030F204602D000F023FB04E000F057
:101D600021FB204600F01FFB00202077206801693E
:101D7000490717D5C168490714D56FF004010161FF
:101D8000022020772068806910F4407F204602D02E
:101D900000F007FB04E000F005FB204600F003FB29
:101DA0000020207720680169090717D5C168090755
:101DB00014D56FF008010161042020772068C06904
:101DC00010F0030F204602D000F0EBFA04E000F020
:101DD000E9FA204600F0E7FA002020772068016940
:101DE000C90617D5C168C90614D56FF01001016185
:101DF000082020772068C06910F4407F204602D078
:101E000000F0CFFA04E000F0CDFA204600F0CBFA63
:101E10000020207720680169C90708D5C168C90773
:101E200005D56FF0010101612046FFF771F82068C8
:101E30000169090608D5C168090605D56FF080015A
:101E40000161204600F0B0FA20680169490608D512
:101E5000C168490605D56FF040010161204600F0D8
:101E6000A4FA2068016989060AD5C168890607D5E0
:101E70006FF0200101612046BDE8104000F096BAE5
:101E800010BD10B40368284A90420ED0B0F1804FC4
:101E90000BD0264CA04208D0254CA04205D0254CA2
:101EA000A04202D0244CA04203D123F070034C681E
:101EB0002343904220D0B0F1804F1DD01B4CA04254
:101EC0001AD01B4CA04217D01A4CA04214D01A4C66
:101ED000A04211D0194CA0420ED0194CA0420BD0F8
:101EE000184CA04208D0184CA04205D0174CA04274
:101EF00002D0174CA04203D123F44073CC68234393
:101F000023F080034C69234303608B68C3620B6832
:101F10008362904202D0084A904201D1096901636C
:101F20000121416110BC70470000014000040040E5
:101F300000080040000C0040000401400040014047
:101F4000004401400048014000180040001C0040CF
:101F50000020004070B400F13C021378012B01D145
:101F6000022015E0012313700223537003685C689C
:101F70009D6825F080054E68354324F0700409689B
:101F80002143596000688560012050700020107066
:101F900070BC704738B5050001D1012032BD05F194
:101FA00038046078002804D1002020702846FEF70D
:101FB0009FFB242060702868C16821F40051C16033
:101FC000284600F016F82868016921F49041016163
:101FD0002868416921F02A0141612868C16841F4FB
:101FE0000051C1600020606020206070A07000205F
:101FF00032BD2DE9F04104462068016921F44051C9
:10200000E268114301612068C168954A1140A268E5
:1020100011432269114362691143E2691143C160AE
:102020002068416921F44071A2691143416120682F
:102030008C49E269B2F5004F40F08980884202D0B5
:102040008949884241D1FFF700FE0546FFF7FDFDB3
:102050000646FFF7FAFD0746FFF7F7FD8046FFF754
:10206000F4FD61684B00642119225543B5FBF3F57B
:102070008C46B5FBFCF55643B6FBF3F65743B7FB6E
:10208000F3F7B7FBFCF701FB1766F60032360F4695
:10209000B6FBF7F6760006F4F87606EB051502FBBC
:1020A00008F6B6FBF3F65043B0FBF3F00A46B0FB7C
:1020B000F2F001FB1060C0003230B0FBF1F000F034
:1020C0000700401921688860C7E0FFF7B3FD0546A7
:1020D000FFF7B0FD0646FFF7ADFD0746FFF7AAFD87
:1020E0008046FFF7A7FD61684B0064211922554324
:1020F000B5FBF3F58C46B5FBFCF55643B6FBF3F6A2
:102100005743B7FBF3F7B7FBFCF701FB1766F60085
:1021100032360F46B6FBF7F6760006F4F87606EB95
:10212000051502FB08F6B6FBF3F65043B0FBF3F0DF
:102130000A46B0FBF2F001FB1060C0003230B0FB89
:10214000F1F000F0070040192168886085E08842BE
:1021500002D04549884240D1FFF777FD0546FFF799
:1021600074FD0646FFF771FD0746FFF76EFD8046DA
:10217000FFF76BFD61688B00642119225543B5FBA5
:10218000F3F58C46B5FBFCF55643B6FBF3F6574327
:10219000B7FBF3F7B7FBFCF701FB176636013236E6
:1021A0000F46B6FBF7F606F0F00606EB051502FB48
:1021B00008F6B6FBF3F65043B0FBF3F00A46B0FB6B
:1021C000F2F001FB106000013230B0FBF1F000F0E2
:1021D0000F004019216888603FE0FFF72BFD05469E
:1021E000FFF728FD0646FFF725FD0746FFF722FD0E
:1021F0008046FFF71FFD61688B006421192255435B
:10220000B5FBF3F58C46B5FBFCF55643B6FBF3F690
:102210005743B7FBF3F7B7FBFCF701FB1766360133
:1022200032360F46B6FBF7F606F0F00606EB05155C
:1022300002FB08F6B6FBF3F65043B0FBF3F00A4698
:10224000B0FBF2F001FB106000013230B0FBF1F0A6
:1022500000F00F00401921688860BDE8F08100009F
:10226000F369FFFF001001400014014038B5044637
:102270000E4D4FF47A702978B0FBF1F00C490968E3
:10228000B1FBF0F0FEF7E4FA002801D0012032BDE6
:10229000102C08D2002221464FF0FF30FEF7C8FA7A
:1022A000AC60002032BD012032BD00BF0000002024
:1022B0000C0000201B4213D1094236D12AB18446BA
:1022C000B0FBF2F002FB10C2704700F071B8FCD313
:1022D0000022002370470B000200002100207047FD
:1022E000904271EB030CF6D370B5B1FA81F4B3FAF6
:1022F00083F52C1BA340C4F1200532FA05F63343C5
:10230000A2405FF00046E64002E05B085FEA32026E
:10231000841A71EB030524BF204629467641F4D385
:1023200002000B003000002170BD012ACFD970B52A
:10233000140C20D0B1FA81F4B2FA82F5C4F1200471
:102340006419B4F12006D6D3B2405FF00044F440E3
:10235000002502E052085FEA3303C61A71EB020E51
:1023600024BF3046714664416D41F3D302000B0037
:102370002000290070BD0C46B1FBF2F102FB1145B3
:102380002D0445EA1045B5FBF2F402FB145580B26A
:1023900040EA0545B5FBF2F002FB105240EA04406A
:1023A00070BD7047704770477047704770470000B6
:1023B000704700000E48016841F4700101600D484B
:1023C000016841F0010101600021816001680A4A51
:1023D0001140016009494160016821F480210160D8
:1023E0000021C1604FF0006005490860704700009F
:1023F00088ED00E000380240FFFFF6FE10300024B8
:1024000008ED00E0000000000000000001020304ED
:102410000607080919E050F8041BCB0744BFA9F1CF
:1024200001035918121F0023042A41F8043BF9D272
:102430005FEA827C0B4604D54FF0000CA1F800C087
:102440009B1CD10744BF0021197050F8042B002AAF
:10245000E1D1704710B450F8041B79B102684368A9
:1024600002440830DC0744BFA9F10104E31852F824
:10247000044B43F8044B091FF9D1ECE710BC70473B
:1024800010B5074979441831064C7C44163404E0F1
:102490000A68081D114488470146A142F8D110BDC1
:1024A0002C0000004C0000004EF68851CEF20001D6
:1024B000086840F470000860BFF34F8FBFF36F8F60
:1024C0004FF00070E1EE100A7047000049FFFFFF77
:1024D00090010000100400200000000079FFFFFFC1
:1024E000100000008000000000000020000000003C
:1024F00000F00BF8002801D0FFF7C2FF0020AFF377
:102500000080FEF7F4FA00F002F80120704700F0B6
:1025100001B800000746384600F002F8FBE700006B
:1025200080B5AFF30080024A11001820ABBEFBE774
:10253000260002000148804701480047B5230008F3
:102540007525000802484168027889184160704783
:1025500000000020FFF7F6BF0148FFF7E9BB0000CD
:1025600054040020010000000000000010000000E2
:102570000024F400AFF30080FFF796FFFFF7B8FFE9
:102580000000000001020304FFF7FEBFFFF7FEBFDB
:10259000FFF7FEBFFFF7FEBFFFF7FEBFFFF7FEBF6F
:1025A000FFF7FEBFFFF7FEBFFFF7FEBFFFF7FEBF5F
:1025B000FFF7FEBFFFF7FEBFFFF7FEBFFFF7FEBF4F
:1025C000FFF7FEBFFFF7FEBFFFF7FEBFFFF7FEBF3F
:1025D000FFF7FEBFFFF7FEBFFFF7FEBFFFF7FEBF2F
:1025E000FFF7FEBFFFF7FEBFFFF7FEBFFFF7FEBF1F
:1025F000FFF7FEBFFFF7FEBFFFF7FEBFFFF7FEBF0F
:10260000FFF7FEBFFFF7FEBFFFF7FEBFFFF7FEBFFE
:10261000FFF7FEBFFFF7FEBFFFF7FEBFFFF7FEBFEE
:10262000FFF7FEBFFFF7FEBFFFF7FEBFFFF7FEBFDE
:10263000FFF7FEBFFFF7FEBFFFF7FEBFFFF7FEBFCE
:10264000FFF7FEBFFFF7FEBFFFF7FEBFFFF7FEBFBE
:10265000FFF7FEBFFFF7FEBFFFF7FEBFFFF7FEBFAE
:10266000FFF7FEBFFFF7FEBFFFF7FEBFFFF7FEBF9E
:10267000FFF7FEBFFFF7FEBFFFF7FEBFFFF7FEBF8E
:10268000FFF7FEBFFFF7FEBFFFF7FEBFFFF7FEBF7E
:10269000FFF7FEBFFFF7FEBFFFF7FEBFFFF7FEBF6E
:1026A000FFF7FEBFFFF7FEBFFFF7FEBFFFF7FEBF5E
:1026B000FFF7FEBFFFF7FEBFFFF7FEBFFFF7FEBF4E
:1026C000FFF7FEBFFFF7FEBFFFF7FEBFFFF7FEBF3E
:1026D000FFF7FEBFFFF7FEBFFFF7FEBFFFF7FEBF2E
:0826E000FFF7FEBFFFF7FEBF8C
:040000050800257555
:00000001FF
