:020000040800F2
:100000008005002059230008AD230008B123000813
:10001000B5230008B9230008BD2300080000000034
:10002000000000000000000000000000C1230008E4
:10003000C523000800000000C92300087923000838
:10004000CD230008D1230008D5230008D9230008B8
:10005000DD230008E1230008E5230008E923000868
:10006000ED230008F1230008F5230008F923000818
:10007000FD230008012400080524000809240008C5
:100080000D24000811240008152400081924000874
:100090001D24000821240008252400082924000824
:1000A0002D240008312400083524000839240008D4
:1000B0003D24000841240008452400084924000884
:1000C0004D24000851240008552400085924000834
:1000D0005D240008612400086524000869240008E4
:1000E0006D24000871240008752400087924000894
:1000F0007D24000881240008852400088924000844
:100100008D240008912400089524000899240008F3
:100110009D240008A12400087D230008A5240008D0
:10012000A9240008AD240008B1240008B524000863
:10013000B9240008BD240008C1240008C524000813
:10014000C9240008CD240008D1240008D5240008C3
:10015000D9240008DD240008E1240008E524000873
:10016000E9240008ED240008F1240008F524000823
:10017000F9240008FD240008012500080000000003
:10018000052500080925000838B5040001D1012023
:1001900032BD94F82000002802D1204600F076FA03
:1001A0002068016841F00101016000F0FFFA054696
:1001B00020684168C9070DD400F0F8FA401B0B28ED
:1001C000F6D3606A40F400306062052084F82000B5
:1001D000012032BD016821F00201016000F0E6FA61
:1001E00005462068416889070DD500F0DFFA401BFD
:1001F0000B28F6D3606A40F400306062052084F872
:100200002000012032BD217E0129016803D141F087
:100210008001016002E021F0800101602068617EC0
:100220000129016803D141F04001016002E021F0A1
:10023000400101602068A17E0129016803D141F0DD
:100240002001016002E021F0200101602068E17ED0
:100250000129016803D121F01001016002E041F0A1
:10026000100101602068217F0129016803D141F05C
:100270000801016002E021F0080101602068617F4F
:100280000129016803D141F00401016002E021F07D
:1002900004010160A168E0680143206901436069CD
:1002A00001436068401E01432068C1610020606214
:1002B000012084F82000002032BDF0B490F8202006
:1002C000012A01D0022A69D14E4A106840F001008B
:1002D0001060106820F47C50106010684B6A40EA8F
:1002E0000320106001200B7D03F01F0300FA03F3CD
:1002F000DC43D0692040D061C869002816D1D0689D
:100300002040D060404800F510754E69CF68D1F8A4
:1003100004C0CCEA074745F8367000F511704D6906
:100320008E680F68C7EA064640F83560C86901283C
:1003300016D1D0681843D060334800F510754E6967
:100340000F68D1F804C0CCEA074745F8367000F5CD
:1003500011704D698E68CF68C7EA064640F835606F
:1003600088690028506802D12040506001E018439D
:10037000506008690028506902D10440546101E0CE
:1003800018435061086A012802D1D0690343D36140
:100390001068400840001060002004E0416A41F409
:1003A000802141620120F0BC704738B5044694F8C2
:1003B000200001281FD1022084F820002068016855
:1003C00049084900016000F0F1F9054620684068DD
:1003D000C0070DD500F0EAF9401B0B28F6D3606A80
:1003E00040F400306062052084F82000012032BD16
:1003F0000020606232BD606A40F40020606201202B
:1004000032BD00000066004000640040F0B490F887
:1004100020400568AD68012C01D0022C53D115F0A5
:10042000E05F4AD0C5F301640125A5401D60036863
:1004300003F5C0752401CE688B68002B04D10B68CE
:1004400046EA43562E5104E04F6843EAC7031E4371
:100450002E510B69056805F5C2752B51097D0129DF
:1004600006D1016801F5C2710B5943F480730B5139
:10047000D17993791B0443EA0163517943EA01235B
:1004800011790B4301682144C1F88C31D1789378FC
:100490001B0443EA0163517843EA012311780B43BB
:1004A00001682144C1F88831006800F5C070015925
:1004B00041F00101015100200AE0416A41F40011BC
:1004C0004162012004E0416A41F48021416201203F
:1004D000F0BC70470146002091F82020012A01D08D
:1004E000022A0CD109688A68520100D501208A6865
:1004F000120100D5401C8968C90000D5401C704716
:1005000070B490F82040012C02D0022C40F088807A
:100510000468002909D1E56815F0030F0FD1416A7D
:1005200041F40011416201207FE0256915F0030FBD
:1005300005D1416A41F400114162012075E00D01CD
:1005400004F5D874645904F004049460066806F550
:10055000D876002C745902D1640D146001E0E408CF
:100560005460046804F5D874645904F00204D4603B
:10057000046804F5DA74665906F00F06082E02D3F3
:100580000824146103E0645904F00F041461046842
:1005900004F5DA746459C4F307249461046804F51B
:1005A000DA746459240C546102682A44D2F8B821E0
:1005B0001A7002682A44D2F8B821120A5A700268E6
:1005C0002A44D2F8B821120C9A7002682A44D2F850
:1005D000B821120EDA7002682A44D2F8BC211A71CE
:1005E00002682A44D2F8BC21120A5A7102682A44CD
:1005F000D2F8BC21120C9A7102682A44D2F8BC21AC
:10060000120EDA710068002904D1C16841F020019E
:10061000C16003E0016941F020010161002004E0B4
:10062000416A41F480214162012070BC704702465A
:10063000002092F82030012B01D0022B09D1106844
:10064000002903D1C06800F003007047006900F082
:100650000300704782B0002000904D48416841F48B
:1006600080414160416801F480410091009900217E
:100670000091016841F080510160006800F08050F5
:1006800000900098072002B000F0EFB810B586B0D7
:1006900004461422002101A800F006F920683D4913
:1006A000884224D1002000903B48016941F000714C
:1006B0000161016901F00071009100990021009130
:1006C000016841F008010160006800F00800009036
:1006D0000098032001900220029000200390032044
:1006E00004900920059001A92C4800F0E7F806B015
:1006F00010BD00682A49884200D0704780B50020AC
:1007000000902348016841F010010160006800F08A
:1007100010000090009800221146362000F0A6F844
:100720003620BDE8024000F0B0B810B586B00446EF
:100730001422002101A800F0B7F820681949884266
:1007400024D1002000901448016941F40031016176
:10075000016901F4003100910099002100910168C4
:1007600041F001010160006800F001000090009874
:100770000C2001900220029000200390032004909E
:100780000720059001A9084800F098F806B010BDB0
:10079000403802400064004030380240000C024003
:1007A0000010004000440040000002400148406842
:1007B000704700BF00000020354A13684FF6FF0164
:1007C0000B40000200F4E060184332490843106017
:1007D00070472F480068C0F302207047010007D41B
:1007E000012200F01F018A402B49400941F82020D6
:1007F00070470901020002D42848815470472848F4
:1008000002F00F02104400F8041C704710B400F00E
:100810000700C0F10703052B00D30423041D072C98
:1008200001D2002000E0C01E012404FA03F35B1E85
:100830001940814004FA00F0401E1040084310BCEB
:10084000704710B5401EB0F1807F01D3012010BD6C
:10085000144C60600F214FF0FF30FFF7CAFF0020FB
:10086000A06007202060002010BDA5E770B50446F9
:100870000D461646FFF7ADFF32462946FFF7C6FF85
:1008800001462046BDE87040B3E7A7E7D9E700007E
:100890000CED00E00000FA0500E100E000E400E0FB
:1008A00018ED00E010E000E010B5044610460A46DE
:1008B0000146204600F0F8F8204610BDF8B50023A8
:1008C0002DE04FF0080C05E0DFF8B0C16045F8D12D
:1008D0004FF0070C0CFA06FC4CEA070C45F824C054
:1008E000674CA668D5432E404F68FF0200D51643DB
:1008F000A660E6682E404F68BF0200D51643E6604A
:1009000066682E404F68BF0300D5164366602668B0
:100910002E404D68ED0300D5164326605B1C0F2B5F
:1009200000F2A48001279F400A683A40BA42F5D1FC
:100930005C000325A540ED434E6806F0030CBCF1B6
:10094000010F03D006F00306022E10D186682E4058
:10095000D1F80CC00CFA04FC4CEA06068660466826
:10096000BE434F68C7F300179F403E4346600E7971
:1009700006F00306032E05D0C6682E408F68A740F8
:100980003E43C6600E7906F00306022E15D11E46C0
:10099000F60800EB86073E6A4FEA830C0CF01C0C4D
:1009A0004FF00F0E0EFA0CFE26EA0E06D1F810E0FC
:1009B0000EFA0CFC4CEA06063E6206682E400D79E3
:1009C00005F0030505FA04F4264306604C6814F4A8
:1009D000403FA3D0002400942A4C256845F480456C
:1009E0002560246804F480440094009C1C46A408FC
:1009F000254D55F824709E0006F00C064FF00F0CA4
:100A00000CFA06FC27EA0C07DFF880C0604502D12B
:100A10004FF0000C5EE7DFF878C0604502D14FF080
:100A2000010C57E7DFF86CC0604502D14FF0020CB3
:100A300050E7DFF864C0604502D14FF0030C49E78E
:100A4000DFF858C0604502D14FF0040C42E7DFF8F0
:100A500050C0604502D14FF0050C3BE7DFF844C0C1
:100A600060457FF431AF4FF0060C33E7F1BD002A4B
:100A700001D081617047090481617047001C024008
:100A8000003C014044380240083801400000024068
:100A90000004024000080240000C02400010024026
:100AA000001402400018024062F30F2262F31F425A
:100AB000401810F0030308D0C91A1FD3DB0748BF42
:100AC00000F8012D28BF20F8022D130030B4144681
:100AD0001546103928BF20E93C00FAD8490728BF3D
:100AE00020E90C0048BF40F8042D890028BF20F8F9
:100AF000022D48BF00F8012D30BC7047C91818BF3F
:100B000000F8012DCB0728BF00F8012D704730B445
:100B1000002513E050F8042BD30744BFA9F10103CB
:100B20009A18091F042942F8045BFAD213468C076D
:100B300044BF15809B1CC90748BF1D7050F8041B9B
:100B40000029E7D130BC704780B500F025FA00F0ED
:100B500043FA00F05CFA00F0DDFB00F040FCBDE879
:100B6000014000F079BC80B500F0A8FCBDE8014070
:100B700000F00FBA704780B5FFF7E6FF00F0CCFC3D
:100B800000F00BF800F0B3F800F099F800F072F8FC
:100B900000F056F8FFF7E7FFFEE780B592B030228D
:100BA000002106A8FFF780FE1422002101A8FFF70C
:100BB0007BFE00200090D948016841F0805101601F
:100BC000006800F080500090009800200090D44809
:100BD000016841F480410160006800F480400090A9
:100BE0000098012006904FF48030079002200C906E
:100BF0004FF480000D9004200E90A8200F9002204A
:100C000010900720119006A800F0A0FC002801D049
:100C100000F0A0F90F200190022002900020039024
:100C20004FF4A05004904FF480500590052101A886
:100C300000F026FE002801D000F08CF913B000BDB2
:100C400080B5B848B8490160102141600021816039
:100C5000C1604FF4302101614FF4E0014161002196
:100C600081618183FFF790FA002802D0BDE801403E
:100C700070E101BD1CB5082200216846FFF714FE93
:100C8000AA4CAB48206000206060A0604AF20F4090
:100C9000E0600020A061204600F0D4FE002801D0D2
:100CA00000F058F91020009000200190694620467D
:100CB00001F04AF8002801D000F04CF913BD80B5CE
:100CC0009C489D4901604FF496414160002181603C
:100CD000C16001610C21416100218161C16101F0AC
:100CE0007BF8002802D0BDE8014033E101BD2DE9C9
:100CF000F84386B0142200216846FFF7D5FD002096
:100D000005908E48016841F010010160016801F012
:100D100010010591059900210591016841F0040138
:100D20000160016801F00401059105990021059118
:100D3000016841F080010160016801F080010591C6
:100D4000059900210591016841F0010101600168E8
:100D500001F001010591059900210591016841F01B
:100D600002010160016801F002010591059900216D
:100D70000591016841F008010160006800F0080079
:100D8000059005986E4C002208212046FFF76FFE63
:100D90006C4D012211462846FFF769FE4FF21006FE
:100DA000694F002231463846FFF761FE0820009067
:100DB0000120019000200290039069462046FFF731
:100DC0007DFD012000900190002002900390694673
:100DD0002846FFF773FD08200090022001900020B4
:100DE000029003900520049069462846FFF766FDAF
:100DF000012000904FF48810019000200290DFF84D
:100E00004C8169464046FFF759FD102000900220B2
:100E1000019000200290039006200490694640460D
:100E2000FFF74CFDE020009002200190002002908E
:100E300003900520049069464046FFF73FFD0420DB
:100E40000090002001900290DFF804916946484626
:100E5000FFF734FD4FF480600090022001900020E5
:100E6000029003900520049069464846FFF726FD4E
:100E700000960120019000200290039069463846B8
:100E8000FFF71CFD4FF4A4500090022001900020B9
:100E9000029003900620049069462846FFF70EFD55
:100EA0004FF4007000900020019002906946404687
:100EB000FFF704FD4FF4E050009002200190002065
:100EC000029003900A20049069464046FFF7F6FC22
:100ED0002020009000200190029069463846FFF7DC
:100EE000EDFC4FF410700090122001900020029051
:100EF00003900420049069464846FFF7DFFC022077
:100F000000904FF490100190002002906946204616
:100F1000FFF7D4FC07B0BDE8F08300004038024082
:100F200000700040E4000020006400401000002039
:100F300000100040580000200044004030380240BB
:100F40000010024000080240000C02400000024075
:100F500000040240FEE730B40EE002684368024439
:100F60000830DC0744BFA9F10104E31852F8045B20
:100F700043F8045B091FF9D150F8041B0029ECD198
:100F800030BC70470649884202D1064800680047D5
:100F90007047034800F078BD034802490860704775
:100FA000100000207C010020750B0008104800682C
:100FB0000068400900F0010070470D480068406873
:100FC000C0B270470A490968486070476FF0200056
:100FD000074909680860704705486FF040010268DA
:100FE00011606FF020010068016070470000000090
:100FF0005800002010B5002404E00C4951F82000EE
:101000008047641C2046C0B20628F6DB10BD0020D5
:10101000074A064B02E043F82120401C0146C9B2B2
:101020000629F8DB03480449086070476401002082
:10103000750B0008F50F00087C01002080B500F05A
:1010400068F800280AD0BA48807A002806D0242000
:10105000FFF7B8FF0FF20900B649086001BD0000B4
:1010600010B500F056F800280AD0B14CE07AFFF72E
:10107000A9FF0020A076E0770FF20900AD490860D3
:1010800010BD000038B500F044F800281BD0A84C73
:10109000A07E014621440D7BE17F6918E177401C69
:1010A000A0762846FFF78EFF242D04D10FF21900F9
:1010B000A049086031BDA07EE17A884203D10FF2D9
:1010C00035009C49086031BD80B500F022F8002849
:1010D0000ED00020FFF776FF964895498A7EC97AA0
:1010E0008A4203D10FF20D01016001BD92490160F6
:1010F00001BD000010B500F00CF8002808D08C4CA1
:10110000E07FFFF75FFF0020A0728C4889490860EC
:1011100010BD8748017E491C0176C9B2042901D25D
:1011200000207047002101760120704780B500F053
:10113000E2F800280DD07E48417F242906D1002105
:1011400001770FF211007B49486001BD0121417513
:10115000417001BD38B500F0B7F8002829D0754CB2
:10116000734D00F0BEF8012804D101206875687045
:101170007348606000F0BFF800281AD0002028777C
:10118000687F002805D103216975012169706C49C8
:1011900061600146092905DB042169750121697037
:1011A0006749616028750020E876A8770FF205008E
:1011B000606031BD80B500F087F800282BD000F0CA
:1011C00090F8012807D15A480121417541705C48C7
:1011D0005849486001BD00F08EF800281BD05448E3
:1011E00000210177C17E427F0B4603449A70837FC2
:1011F000D3188377491CC176242A04D10FF2190031
:101200004C49486001BD007DC9B2814203D10FF253
:1012100065004849486001BD80B500F055F80028D8
:1012200027D000F05EF8012807D14148012141751F
:10123000417043483F49486001BD00F05CF8002818
:1012400017D03B49002008773A4A487F002806D04B
:1012500005204875012048703948506001BDC87E9E
:10126000097D884202D23748506001BD0FF2050067
:10127000506001BD10B500F027F8002823D000F021
:1012800030F8012807D12A480121417541702C48C6
:101290002849486010BD00F02EF8002813D02448DB
:1012A000002101772349264A437F847FA34205D149
:1012B00000234375012343704A6010BD0623437524
:1012C000012343704A6010BD1948417E491C417694
:1012D000C9B2002901D100207047002141760120C8
:1012E00070471348017F491C0177C9B20829804122
:1012F000C043C00F704780B5FFF758FE002801D1EA
:10130000002002BDFFF759FE09494877FFF75EFE4E
:10131000012002BD064801210170002141700183B6
:101320008172417503480549016005494160704774
:101330000C01002064010020851000083D10000809
:101340002D110008B51100082C48C07A002803D0E0
:101350000FF209002A4908617047000010B500F03B
:1013600014F8002810D000F08BF801280CD0234C82
:10137000A27A04F10C014FF4C04000F08FF821482C
:101380001F4908610020E07210BD1C48017E491C05
:101390000176C9B2042901D20020704700210176EC
:1013A0000120704710B500F00DF8002809D000F0BA
:1013B00063F8002805D0114CA01C00F064F801204F
:1013C000607010BD0D48417E491C4176C9B20029AC
:1013D00001D1002070470021417601207047074865
:1013E000002101834170C17201750549054A0A61F6
:1013F000054A4A6101210170704700004801002040
:101400006401002049130008A513000838B5154CE5
:10141000607801280CD1144D0822A11C05F10C00A4
:1014200000F076FD0820E8720120A87200206070AC
:1014300031BD38B50C4C607801280CD1094D08221B
:10144000A11C05F10C0000F063FD0820A87201202A
:10145000E8720020607031BD04480549C16005494B
:1014600081607047480100200C01002064010020C9
:10147000331400080D14000800212448FFF7D7B8E2
:101480002248FFF727B880B50346214A00211F48AC
:10149000FFF736F8401E8041C00F02BD10B51D4C4D
:1014A0002060226104F140030A4621461748FEF7F6
:1014B000ADFF401E8041C043C00F10BD10B51548A0
:1014C000002141608160C160017544F6A001816125
:1014D0000021C1610162416281620D21C16200216E
:1014E0000163012141638163084C00F1180120462A
:1014F000FEF7E3FE002801D0012010BD2046FEF7D4
:1015000054FF401E8041C043C00F10BDE4000020C6
:101510002C010020A000002080B50B48016841F498
:1015200000710160016841F480610160016841F46B
:10153000807101600320FFF798F9002000F03CFD66
:10154000FFF788F8002002BD003C02402DE9FC4175
:10155000040000F08781DFF818532078C00713D506
:10156000A86800F00C00042807D0A86800F00C0060
:1015700008283DD1686840023AD52868800303D521
:101580006068002800F06E812078800719D5A8686F
:1015900010F00C0F07D0A86800F00C0008285ED1EE
:1015A000686840025BD42868800703D5E06801289A
:1015B00040F05881286820F0F800216940EAC10015
:1015C00028602078000740F18080AA4960690028DF
:1015D0006DD001200860FFF7E9F80646686F8007C4
:1015E00073D4FFF7E3F8801B0228F7D903203CE10E
:1015F0006068B0F5803F04D1286840F480302860EE
:1016000012E0B0F5A02F286807D140F480202860B0
:10161000286840F48030286006E020F4803028609C
:10162000286820F480202860606800280BD0FFF72D
:10163000BDF8064628688003A6D4FFF7B7F8801BDC
:101640006528F7D3D2E7FFF7B1F80646286880038C
:101650009AD5FFF7ABF8801B6528F7D3C6E7864914
:10166000E068002815D001200860FFF79FF80646C3
:101670002868800705D4FFF799F8801B0228F7D95E
:10168000B4E7286820F0F800216940EAC10028602A
:1016900097E700200860FFF789F80646286880076A
:1016A0008FD5FFF783F8801B0228F7D99EE700202B
:1016B0000860FFF77BF80646686F800705D5FFF7DF
:1016C00075F8801B0228F7D990E72078400763D58A
:1016D0000026286CC0000BD430460090286C40F0E7
:1016E00080502864286C00F08050009000980126FB
:1016F000624F3868C00510D4386840F48070386094
:10170000FFF754F880463868C00506D4FFF74EF856
:10171000A0EB08000228F6D968E7A068012804D1E8
:10172000286F40F00100286711E00528286F07D1D5
:1017300040F004002867286F40F00100286706E0A9
:10174000400840002867286F20F004002867A06840
:1017500000280DD0FFF72AF80746286F800715D418
:10176000FFF724F8C01B41F289318842F5D33DE7E9
:10177000FFF71CF80746286F800707D5FFF716F814
:10178000C01B41F289318842F5D32FE7012E03D1E6
:10179000286C20F080502864A069002864D0A968D3
:1017A00001F00C0108293BD0334E02282AD1002039
:1017B0003066FEF7FBFF07462868800105D5FEF777
:1017C000F5FFC01B0228F7D910E7E069216A08433A
:1017D000616A40EA8110A16A4908491E40EA014055
:1017E000E16A40EA0160686001203066FEF7DEFFD2
:1017F00004462868800137D4FEF7D8FF001B022872
:10180000F7D9F3E600203066FEF7D0FF04462868DB
:10181000800129D5FEF7CAFF001B0228F7D9E5E6AB
:1018200001281FD0686800F48001E269914219D153
:1018300000F03F01226A914214D147F6C071014085
:10184000626AB1EB821F0DD100F44031A26A5208E6
:10185000521EB1EB024F05D100F07060E16AB0EBAF
:10186000016F01D0012000E00020BDE8F68100BF3B
:1018700000380240800E474200004742007000409E
:101880002DE9F04104460F46002C5BD04D4E3068E8
:1018900000F00700B84205D23770306800F007004A
:1018A000B8424FD12068484D810712D5400703D573
:1018B000A86840F4E050A8602078000703D5A86825
:1018C00040F46040A860A96821F0F001A0680143DD
:1018D000A9602078C0072AD56068012803D129684B
:1018E00089030BD42EE0022801D0032803D12968F4
:1018F000890103D426E02968890723D5A9688908C6
:1019000050EA8100A860FEF751FF8046A86800F009
:101910000C006168B0EB810F09D0FEF747FFA0EB28
:10192000080041F289318842F0D303202EE030686C
:1019300000F00700874207D23770306800F00700D8
:10194000B84201D0012021E02078400705D5A968E0
:1019500021F4E051E0680143A9602078000706D532
:10196000A86820F46040216940EAC100A86000F046
:1019700037F81649AA68C2F30312895CC8401449B3
:1019800008601448006800F017FB0020BDE8F081F3
:101990000F480068704780B5FFF7FAFF0F490E4AFD
:1019A0001268C2F38222895CC84002BD80B5FFF78D
:1019B000EFFF0A49084A1268C2F34232895CC84004
:1019C00002BD0000003C02400038024090220008A6
:1019D0000C0000200800002008380240A423000862
:1019E00010B5154C606800F00C00042802D00828DF
:1019F00002D01EE0114810BD226802F03F02002311
:101A0000206840022068C0F3881005D50B49A1FB6F
:101A1000000100F0F5FA04E00949A1FB000100F023
:101A2000EFFA2168C1F30141491C4900B0FBF1F014
:101A300010BD034810BD00BF0438024000127A00F8
:101A40000024F40038B5040001D1012032BD04F1B6
:101A50003C056878002804D1002028702046FEF755
:101A600048FE02206870211D206800F0F6F8012071
:101A7000A872A870E87028716871A871E87128725E
:101A800068726870002032BD90F83D10012901D0C5
:101A900001207047022180F83D100168CA6842F0B9
:101AA0000102CA600068DFF85C1088421AD0B0F109
:101AB000804F17D0DFF85010884213D0DFF84C1059
:101AC00088420FD0DFF8481088420BD0DFF844106E
:101AD000884207D0DFF84010884203D0DFF83C107E
:101AE000884209D1816801F00701062908D0016800
:101AF00041F00101016003E0016841F00101016072
:101B00000020704700000140000400400008004031
:101B1000000C00400004014000400140001800405B
:101B200070B504462068C5680669B10716D5A907CF
:101B300014D56FF0020101610120207720688069CF
:101B400010F0030F204602D000F072FB04E000F01A
:101B500070FB204600F06EFB00202077700717D541
:101B6000680715D56FF0040021680861022020770E
:101B70002068806910F4407F204602D000F058FBB6
:101B800004E000F056FB204600F054FB00202077D4
:101B9000300717D5280715D56FF0080021680861B0
:101BA000042020772068C06910F0030F204602D07F
:101BB00000F03EFB04E000F03CFB204600F03AFB66
:101BC00000202077F00617D5E80615D56FF0100035
:101BD00021680861082020772068C06910F4407FE0
:101BE000204602D000F024FB04E000F022FB204657
:101BF00000F020FB0020207706F0010005F0010135
:101C0000084206D06FF00100216808612046FFF706
:101C1000B9F9300608D5280606D56FF0800021688E
:101C20000861204600F007FB700608D5680606D557
:101C30006FF0400021680861204600F0FDFAB00610
:101C40000AD5A80608D56FF0200021680861204653
:101C5000BDE8704000F0F1BA70BD10B40468DFF860
:101C6000BC30984212D0B0F1804F0FD0DFF8B020D6
:101C700090420BD0DFF8AC20904207D0DFF8A820CC
:101C8000904203D0DFF8A420904203D124F07004E6
:101C90004A681443984221D0B0F1804F1ED0DFF83B
:101CA000802090421AD01F4A904217D01E4A90427C
:101CB00014D01E4A904211D01D4A90420ED01D4AA7
:101CC00090420BD01C4A904208D01C4A904205D04A
:101CD0001B4A904202D01B4A904203D124F4407424
:101CE000CA68144324F080044A69144304608A6873
:101CF000C2620A688262984202D00C4A904201D1C4
:101D000009690163012141610169C90703D50169BD
:101D100049084900016110BC704700000000014003
:101D20000004004000080040000C00400004014096
:101D300000400140004401400048014000180040BC
:101D4000001C00400020004070B400F13C031A78F1
:101D5000012A01D102202DE001221A7002225A70BC
:101D600005686E68AC6826F070060A6816436E60F7
:101D700002681248824214D0B2F1804F11D010484C
:101D800082420ED00F4882420BD00F48824208D0C8
:101D90000E48824205D00E48824202D00D4882424F
:101DA00004D124F0800448680443946001205870F2
:101DB0000020187070BC7047000000000000014057
:101DC0000004004000080040000C004000040140F6
:101DD000004001400018004038B5040001D1012046
:101DE00032BD04F140056878002804D10020287035
:101DF0002046FEF79AFC242068702068C16821F410
:101E00000051C160204600F017F82068016921F4F4
:101E1000904101612068416921F02A0141612068F7
:101E2000C16841F40051C1600020686020206870E2
:101E3000A8700020606332BD70B5044621680A694D
:101E400022F44052E06802430A612168CA682D48C2
:101E50000240A06802432069024360690243E069CE
:101E60000243CA6021684A6922F44072A0690243B1
:101E70004A6120682449884202D02449884202D11C
:101E8000FFF794FD01E0FFF786FD6268002319214A
:101E9000A1FB000125686426E469B4F5004F18D160
:101EA00043EAD273520000F0ABF83146B0FBF1F1D7
:101EB00006FB1106F60032366420B6FBF0F0420055
:101EC00002F4F87202EB011200F007008018A8601B
:101ED00070BD43EA9273920000F092F83146B0FB75
:101EE000F1F106FB1106360132366420B6FBF0F044
:101EF00000F0F00202EB011200F00F008018A86061
:101F000070BD0000F369FFFF0010014000140140A4
:101F100062B38B0708D0521E11F8013B00F8013B59
:101F200000F024808B07F6D1830740F0208000BFAB
:101F3000103A07D330B4B1E83810103AA0E838109E
:101F4000F9D230BC530724BFB1E80810A0E808104C
:101F500044BF51F8043B40F8043BD20724BF31F89A
:101F6000022B20F8022B44BF0B7803707047121F1E
:101F700017D35B0009D151F8043B20F8023B1B0C3E
:101F8000121F20F8023BF6D20BE051F8043B00F898
:101F9000013B1B0A20F8023B1B0C121F00F8013BFF
:101FA000F3D238BF121D521E24BF11F8013B00F8B6
:101FB000013BF8D87047000038B504460E4D4FF489
:101FC0007A702978B0FBF1F00C490968B1FBF0F0A8
:101FD000FEF75CFC002801D0012032BD102C08D295
:101FE000002221464FF0FF30FEF740FCAC6000209D
:101FF00032BD012032BD00BF000000200C000020D7
:10200000BBBBE1B1B2F5803F80F07E80022A1ED9D1
:102010008C46B1FBF2F102FB11C31B0443EA1043EF
:10202000B3FBF2FC02FB1C3380B240EA0343B3FB78
:10203000F2F002FB103240EA0C4000237047022A03
:1020400005D98446B0FBF2F002FB10C270474AB1DA
:1020500005D100F0010249085FEA30007047002214
:102060000023704700F0EAB80B00020000210020B6
:102070007047904271EB030CF6D3B3F5803F2FD23B
:10208000F0B5B3FA83F7B1FA81F4A7F10F0E3D1B57
:102090005340CEF1200602FA0EF2F3415340B5F15F
:1020A0000F0746D80F3C2C444140C4F12006A04005
:1020B000F1414140B1FBF3F603FB1611A2FB0645CB
:1020C000001BA94102D2761E8018594180EA010204
:1020D00021FA0EF362FA0EF200215A403046F0BDAA
:1020E00030B4B1FBF3FC03FB1C11A2FB0C45001B3D
:1020F000A94103D2ACF1010C8018594130BC024611
:102100000B46604600217047B2F1807F65D3F0B581
:10211000B2FA82F7B1FA81F4C7F10F063D1B22FA39
:1021200006F307F1110EF24120355A40B5F10F07C1
:10213000B8D94140C4F12006A040F1414140B1FB73
:10214000F3FC03FB1C11A2FB0C45001BA94103D2AD
:10215000BCF1010C801859410F2F12D30F3FC90356
:1021600041EA5041B1FBF3F603FB1611A2FB064511
:10217000D4EBC030A94102D2761E8018594146EAFC
:10218000CC3C07B34140C7F12006B840F141414083
:10219000B1FBF3F603FB1611A2FB0645001BA94198
:1021A00002D2761E8018594180EA010221FA0EF30C
:1021B000C7F1200462FA0EF20CFA07F05A402CFA2A
:1021C00004F13043F0BD80EA010221FA0EF3002150
:1021D00062FA0EF260465A40F0BD8C46B1FBF2F155
:1021E00002FB11C31B0243EA1063B3FBF2FC02FBC8
:1021F0001C331B024CEA002043EA1063B3FBF2FCE1
:1022000002FB1C331B024CEA002043EA1063B3FBC1
:10221000F2FC02FB1C331B024CEA002043EA106371
:10222000B3FBF2FC02FB1C324CEA00200023704797
:10223000704770477047704770477047704700009D
:102240000E48016841F4700101600D49086840F0D2
:1022500001000860002088600A680A4802400A609D
:1022600009484860086820F4802008600020C860A1
:102270004FF00060054908607047000088ED00E0FD
:1022800000380240FFFFF6FE1030002408ED00E0A9
:102290000000000000000000010203040607080916
:1022A00010B5074979441831064C7C44163404E0D3
:1022B0000A68081D114488470146A142F8D110BDA3
:1022C0002C0000004C0000004EF68851CEF20001B8
:1022D000086840F470000860BFF34F8FBFF36F8F42
:1022E0004FF00070E1EE100A7047000023E8FFFF96
:1022F0007001000010000020000000005BECFFFFF8
:102300001000000084000000000000200000000019
:1023100000F00DF8002801D0FFF7C2FFAFF30080F6
:102320000020AFF30080FEF726FC00F002F8012049
:10233000704700F001B800000746384600F002F888
:10234000FBE7000080B5AFF30080024A11001820BF
:10235000ABBEFBE72600020001488047014800476A
:102360004122000899230008024841680278891830
:102370004160704700000020FFF7F6BF0148FFF7FB
:10238000CFBB000010000020010000000000000092
:10239000100000000024F400AFF30080FFF794FF6A
:1023A000FFF7B6FF0000000001020304FFF7FEBFC5
:1023B000FFF7FEBFFFF7FEBFFFF7FEBFFFF7FEBF51
:1023C000FFF7FEBFFFF7FEBFFFF7FEBFFFF7FEBF41
:1023D000FFF7FEBFFFF7FEBFFFF7FEBFFFF7FEBF31
:1023E000FFF7FEBFFFF7FEBFFFF7FEBFFFF7FEBF21
:1023F000FFF7FEBFFFF7FEBFFFF7FEBFFFF7FEBF11
:10240000FFF7FEBFFFF7FEBFFFF7FEBFFFF7FEBF00
:10241000FFF7FEBFFFF7FEBFFFF7FEBFFFF7FEBFF0
:10242000FFF7FEBFFFF7FEBFFFF7FEBFFFF7FEBFE0
:10243000FFF7FEBFFFF7FEBFFFF7FEBFFFF7FEBFD0
:10244000FFF7FEBFFFF7FEBFFFF7FEBFFFF7FEBFC0
:10245000FFF7FEBFFFF7FEBFFFF7FEBFFFF7FEBFB0
:10246000FFF7FEBFFFF7FEBFFFF7FEBFFFF7FEBFA0
:10247000FFF7FEBFFFF7FEBFFFF7FEBFFFF7FEBF90
:10248000FFF7FEBFFFF7FEBFFFF7FEBFFFF7FEBF80
:10249000FFF7FEBFFFF7FEBFFFF7FEBFFFF7FEBF70
:1024A000FFF7FEBFFFF7FEBFFFF7FEBFFFF7FEBF60
:1024B000FFF7FEBFFFF7FEBFFFF7FEBFFFF7FEBF50
:1024C000FFF7FEBFFFF7FEBFFFF7FEBFFFF7FEBF40
:1024D000FFF7FEBFFFF7FEBFFFF7FEBFFFF7FEBF30
:1024E000FFF7FEBFFFF7FEBFFFF7FEBFFFF7FEBF20
:1024F000FFF7FEBFFFF7FEBFFFF7FEBFFFF7FEBF10
:0C250000FFF7FEBFFFF7FEBFFFF7FEBFB6
:040000050800239933
:00000001FF
