:020000040800F2
:10000000680500200D200008612000086520000818
:10001000692000086D200008712000080000000021
:100020000000000000000000000000007520000833
:1000300079200008000000007D2000082D20000825
:100040008120000885200008892000088D200008F4
:100050009120000895200008992000089D200008A4
:10006000A1200008A5200008A9200008AD20000854
:10007000B1200008B5200008B9200008BD20000804
:10008000C1200008C5200008C9200008CD200008B4
:10009000D1200008D5200008D9200008DD20000864
:1000A000E1200008E5200008E9200008ED20000814
:1000B000F1200008F5200008F9200008FD200008C4
:1000C0000121000805210008092100080D21000870
:1000D0001121000815210008192100081D21000820
:1000E0002121000825210008292100082D210008D0
:1000F0003121000835210008392100083D21000880
:100100004121000845210008492100084D2100082F
:10011000512100085521000831200008592100080C
:100120005D2100086121000865210008692100089F
:100130006D2100087121000875210008792100084F
:100140007D210008812100088521000889210008FF
:100150008D210008912100089521000899210008AF
:100160009D210008A1210008A5210008A92100085F
:10017000AD210008B1210008B521000800000000F1
:10018000B9210008BD21000880B500F02BFA00F06D
:1001900049FA00F062FA00F0FFFBBDE8014000F010
:1001A00073BC80B500F084FCBDE8014000F017BAD4
:1001B000704780B5FFF7E8FF00F0A6FC00F00BF8F1
:1001C00000F0B5F800F09BF800F074F800F056F875
:1001D000FFF7E7FFFEE780B592B03022002106A8C6
:1001E00000F0ACFC1422002101A800F0A7FC0020C4
:1001F0000090DA48016841F080510160006800F029
:1002000080500090009800200090D548016841F48B
:1002100080410160006800F4804000900098012057
:1002200006904FF48030079002200C904FF480002D
:100230000D9004200E90A8200F900220109007200F
:10024000119006A800F084FC002801D000F0A2F96B
:100250000F20019002200290002003904FF4A05044
:1002600004904FF480500590052101A800F00AFE8B
:10027000002801D000F08EF913B000BD80B5B94858
:10028000B9490160102141604FF080418160002137
:10029000C1604FF4302101614FF4E0014161002160
:1002A0008161818300F0D0FE002802D0BDE80140CA
:1002B00070E101BD1CB508220021684600F03EFC3B
:1002C000AA4CAB48206000206060A0604AF20F405A
:1002D000E0600020A061204600F0F8FF002801D077
:1002E00000F058F910200090002001906946204647
:1002F00001F06EF9002801D000F04CF913BD80B573
:100300009C489D4901604FF4964141600021816005
:10031000C16001610C21416100218161C16101F075
:100320009FF9002802D0BDE8014033E101BD2DE96D
:10033000F84386B014220021684600F0FFFB00203D
:1003400005908E48016841F010010160016801F0DC
:1003500010010591059900210591016841F0040102
:100360000160016801F004010591059900210591E2
:10037000016841F080010160016801F08001059190
:10038000059900210591016841F0010101600168B2
:1003900001F001010591059900210591016841F0E5
:1003A00002010160016801F0020105910599002137
:1003B0000591016841F008010160006800F0080043
:1003C000059005986E4C00220821204601F0BDFAE8
:1003D0006C4D01221146284601F0B7FA4FF2100683
:1003E000694F00223146384601F0AFFA08200090EC
:1003F000012001900020029003906946204601F000
:10040000CBF90120009001900020029003906946F2
:10041000284601F0C1F90820009002200190002038
:1004200002900390052004906946284601F0B4F933
:10043000012000904FF48810019000200290DFF816
:100440004C816946404601F0A7F910200090022037
:1004500001900020029003900620049069464046D7
:1004600001F09AF9E0200090022001900020029013
:100470000390052004906946404601F08DF9042060
:100480000090002001900290DFF8049169464846F0
:1004900001F082F94FF4806000900220019000206A
:1004A00002900390052004906946484601F074F9D3
:1004B0000096012001900020029003906946384682
:1004C00001F06AF94FF4A45000900220019000203E
:1004D00002900390062004906946284601F05CF9DA
:1004E0004FF4007000900020019002906946404651
:1004F00001F052F94FF4E0500090022001900020EA
:10050000029003900A2004906946404601F044F9A5
:10051000202000900020019002906946384601F0AA
:100520003BF94FF4107000901220019000200290CF
:100530000390042004906946484601F02DF90220FA
:1005400000904FF4901001900020029069462046E0
:1005500001F022F907B0BDE8F08300004038024006
:1005600000700040E4000020006400401000002003
:100570000010004058000020004400403038024085
:100580000010024000080240000C0240000002403F
:1005900000040240FEE730B4002513E050F8042BBD
:1005A000D30744BFA9F101039A18091F042942F88F
:1005B000045BFAD213468C0744BF15809B1CC90705
:1005C00048BF1D7050F8041B0029E7D130BC7047AC
:1005D0000649884202D10648006800477047034830
:1005E00000F096BE034802490860704710000020E2
:1005F0005C010020B1010008104800680068400953
:1006000000F0010070470D4800684068C0B27047B4
:100610000A490968486070476FF020000749096877
:100620000860704705486FF04001026811606FF084
:1006300020010068016070470000000058000020A1
:1006400010B5002404E00C4951F820008047641CD8
:100650002046C0B20728F6DB10BD0020074A064B33
:1006600002E043F82120401C0146C9B20729F8DB0B
:10067000034804490860704734010020B1010008B4
:10068000410600085C01002080B500F06FF80028EA
:100690000CD0DFF82C03807C002807D02420FFF743
:1006A000B7FF0FF20D00DFF81C13886101BD0000D9
:1006B00080B500F05BF800280CD0DFF80403C07CA4
:1006C000FFF7A6FFC0480021017041700FF209003A
:1006D000BC49886101BD000070B500F047F80028F2
:1006E0001CD0B94C2078B64D014629440E7D617866
:1006F00071186170401C20703046FFF789FF242E6E
:1007000004D10FF21D00AF49886170BD2078E97CEB
:10071000884203D10FF23500AA49886170BD0000FC
:1007200080B500F023F800280FD00020FFF770FFFD
:10073000A448A5490978A24AD27C914203D10FF27C
:100740000D01816101BDA149816101BD80B500F04C
:100750000DF8002809D09C484078FFF759FF002089
:10076000974988749A489749886101BD99480178EA
:10077000491C0170C9B2042901D200207047002130
:1007800001700120704780B500F0F7F800280FD005
:1007900091488178242906D1002141700FF215007B
:1007A0008849886001BD8648012180F82510417084
:1007B00001BD000070B500F0C9F800282CD0804CB5
:1007C00004F124057F4E00F0CEF8012804D1012069
:1007D000687060708148B06000F0CFF800281BD0CE
:1007E0007D49002048708878002805D103226A706E
:1007F00001226270794AB2600246112A05DB0422A6
:100800006A7001226270754AB26028700020087018
:10081000C8700FF20900B06070BD000038B500F07C
:1008200095F800282FD000F09EF8012809D16448DF
:10083000012100F1240251704170684861498860CB
:1008400031BD00F09AF800281DD06349002048709F
:100850008B780A785A48841C15466355CC781C1945
:10086000CC70521C0A70242B04D10FF21D00554984
:10087000886031BD90F82400D2B2824203D10FF2D9
:1008800071005049886031BD10B500F05FF8002854
:100890002CD000F068F8012809D14948012100F165
:1008A0002402517041704D484649886010BD00F0E7
:1008B00064F800281AD0484A00205070404901F1DD
:1008C0002403404C9078002806D005205870012061
:1008D00048704248A06010BD10781978884202D252
:1008E0003F48A06010BD0FF20900A06010BD0000DD
:1008F00010B500F02BF8002827D000F034F80128BC
:1009000008D12F48012180F82510417033482D4926
:10091000886010BD00F031F8002816D02E4B002062
:10092000587028492D4A26489C78DB789C4206D18D
:10093000002380F82530012343708A6010BD062310
:1009400080F82530012343708A6010BD214841782A
:10095000491C4170C9B2002901D100207047002113
:100960004170012070471C484178491C4170C9B250
:1009700008298041C043C00F704780B5FFF73CFE97
:10098000002801D1002002BDFFF73DFE124988700A
:10099000FFF742FE012002BD09480121017000213C
:1009A00041700C4900220A7082744A70114680F826
:1009B000251004480649816108498160704700009C
:1009C0000C0100203401002066010020D906000837
:1009D00089060008640100206001002087070008E4
:1009E0001D080008002006E02C49014489782C4AA3
:1009F00002449170401C0428F6DB70470020284A0E
:100A000000E0401C0146C9B2042905DA1144897886
:100A1000C907F6D50220704700207047002005E086
:100A20001F4A0244D27901440A75401C1B4904281C
:100A3000F6DB0420C874704718494878002800D1B4
:100A4000704710B500204870154C0120207091F8B7
:100A50002500002802D00120607010BDFFF7C2FF02
:100A6000FFF7CCFF607010BD38B50C4CA07C01289E
:100A700009D00B4DA879002805D0FFF7CFFF012042
:100A8000A0740020A87131BD05480021018081714A
:100A900004480549C1600549416170470C010020C7
:100AA0005001002034010020390A0008690A0008BA
:100AB00010B51448002141608160C160017544F6A1
:100AC000A00181610021C1610162416281620D2149
:100AD000C16200210163012141638163084C00F17F
:100AE0001801204600F049FB002801D0012010BD6C
:100AF000204600F0BAFB401E8041C043C00F10BD2D
:100B0000E4000020A000002080B50B48016841F4FB
:100B100000710160016841F480610160016841F485
:100B200080710160032000F086FF002000F0A2FF2A
:100B300000F0C4FF002002BD003C024010B5044696
:100B400010460A460146204601F064F8204610BDD2
:100B50002DE9FC41040000F08781DFF8185320786C
:100B6000C00713D5A86800F00C00042807D0A868B7
:100B700000F00C0008283DD1686840023AD528688A
:100B8000800303D56068002800F06E81207880071C
:100B900019D5A86810F00C0F07D0A86800F00C0059
:100BA00008285ED1686840025BD42868800703D5B6
:100BB000E068012840F05881286820F0F800216999
:100BC00040EAC10028602078000740F18080AA49EF
:100BD000606900286DD00120086001F065F80646C4
:100BE000686F800773D401F05FF8801B0228F7D983
:100BF00003203CE16068B0F5803F04D1286840F4F0
:100C00008030286012E0B0F5A02F286807D140F4AA
:100C100080202860286840F48030286006E020F4B6
:100C200080302860286820F48020286060680028D0
:100C30000BD001F039F8064628688003A6D401F0ED
:100C400033F8801B6528F7D3D2E701F02DF806466C
:100C5000286880039AD501F027F8801B6528F7D310
:100C6000C6E78649E068002815D00120086001F039
:100C70001BF806462868800705D401F015F8801B8C
:100C80000228F7D9B4E7286820F0F800216940EA83
:100C9000C100286097E70020086001F005F80646CB
:100CA000286880078FD500F0FFFF801B0228F7D946
:100CB0009EE70020086000F0F7FF0646686F800797
:100CC00005D500F0F1FF801B0228F7D990E72078C6
:100CD000400763D50026286CC0000BD43046009036
:100CE000286C40F080502864286C00F08050009000
:100CF00000980126624F3868C00510D4386840F467
:100D00008070386000F0D0FF80463868C00506D497
:100D100000F0CAFFA0EB08000228F6D968E7A06837
:100D2000012804D1286F40F00100286711E0052850
:100D3000286F07D140F004002867286F40F00100B9
:100D4000286706E0400840002867286F20F004006C
:100D50002867A06800280DD000F0A6FF0746286F7E
:100D6000800715D400F0A0FFC01B41F289318842F2
:100D7000F5D33DE700F098FF0746286F800707D5B9
:100D800000F092FFC01B41F289318842F5D32FE772
:100D9000012E03D1286C20F080502864A06900281F
:100DA00064D0A96801F00C0108293BD0334E022819
:100DB0002AD10020306600F077FF074628688001BE
:100DC00005D500F071FFC01B0228F7D910E7E069D4
:100DD000216A0843616A40EA8110A16A4908491EF4
:100DE00040EA0140E16A40EA016068600120306643
:100DF00000F05AFF04462868800137D400F054FF01
:100E0000001B0228F7D9F3E60020306600F04CFF03
:100E100004462868800129D500F046FF001B0228FF
:100E2000F7D9E5E601281FD0686800F48001E2697F
:100E3000914219D100F03F01226A914214D147F644
:100E4000C0710140626AB1EB821F0DD100F44031E4
:100E5000A26A5208521EB1EB024F05D100F0706039
:100E6000E16AB0EB016F01D0012000E00020BDE895
:100E7000F68100BF00380240800E47420000474222
:100E8000007000402DE9F04104460F46002C5BD075
:100E90004D4E306800F00700B84205D23770306818
:100EA00000F00700B8424FD12068484D810712D5A5
:100EB000400703D5A86840F4E050A86020780007F8
:100EC00003D5A86840F46040A860A96821F0F0014B
:100ED000A0680143A9602078C0072AD5606801286E
:100EE00003D1296889030BD42EE0022801D00328FE
:100EF00003D12968890103D426E02968890723D50D
:100F0000A968890850EA8100A86000F0CDFE8046FB
:100F1000A86800F00C006168B0EB810F09D000F008
:100F2000C3FEA0EB080041F289318842F0D30320D0
:100F30002EE0306800F00700874207D23770306833
:100F400000F00700B84201D0012021E020784007DE
:100F500005D5A96821F4E051E0680143A960207833
:100F6000000706D5A86820F46040216940EAC10066
:100F7000A86000F037F81649AA68C2F30312895C2A
:100F8000C840144908601448006800F073FD002050
:100F9000BDE8F0810F480068704780B5FFF7FAFFA1
:100FA0000F490E4A1268C2F38222895CC84002BD12
:100FB00080B5FFF7EFFF0A49084A1268C2F34232D0
:100FC000895CC84002BD0000003C0240003802407D
:100FD000441F00080C0000200800002008380240D0
:100FE0005820000810B5154C606800F00C0004286B
:100FF00002D0082802D01EE0114810BD226802F07D
:101000003F020023206840022068C0F3881005D505
:101010000B49A1FB000100F04DFE04E00949A1FBD2
:10102000000100F047FE2168C1F30141491C49005D
:10103000B0FBF1F010BD034810BD00BF0438024002
:1010400000127A000024F40038B5040001D1012018
:1010500032BD94F82000002802D1204600F04AFD5D
:101060002068016841F00101016000F01DFE0546A5
:1010700020684168C9070DD400F016FE401B0B28FC
:10108000F6D3606A40F400306062052084F82000E6
:10109000012032BD016821F00201016000F004FE70
:1010A00005462068416889070DD500F0FDFD401B0D
:1010B0000B28F6D3606A40F400306062052084F8A3
:1010C0002000012032BD217E0129016803D141F0B9
:1010D0008001016002E021F0800101602068617EF2
:1010E0000129016803D141F04001016002E021F0D3
:1010F000400101602068A17E0129016803D141F00F
:101100002001016002E021F0200101602068E17E01
:101110000129016803D121F01001016002E041F0D2
:10112000100101602068217F0129016803D141F08D
:101130000801016002E021F0080101602068617F80
:101140000129016803D141F00401016002E021F0AE
:1011500004010160A168E0680143206901436069FE
:1011600001436068401E01432068C1610020606245
:10117000012084F82000002032BDF0B490F8202037
:10118000012A01D0022A69D14E4A106840F00100BC
:101190001060106820F47C50106010684B6A40EAC0
:1011A0000320106001200B7D03F01F0300FA03F3FE
:1011B000DC43D0692040D061C869002816D1D068CE
:1011C0002040D060404800F510754E69CF68D1F8D6
:1011D00004C0CCEA074745F8367000F511704D6938
:1011E0008E680F68C7EA064640F83560C86901286E
:1011F00016D1D0681843D060334800F510754E6999
:101200000F68D1F804C0CCEA074745F8367000F5FE
:1012100011704D698E68CF68C7EA064640F83560A0
:1012200088690028506802D12040506001E01843CE
:10123000506008690028506902D10440546101E0FF
:1012400018435061086A012802D1D0690343D36171
:101250001068400840001060002004E0416A41F43A
:10126000802141620120F0BC704738B5044694F8F3
:10127000200001281FD1022084F820002068016886
:1012800049084900016000F00FFD054620684068EC
:10129000C0070DD500F008FD401B0B28F6D3606A8F
:1012A00040F400306062052084F82000012032BD47
:1012B0000020606232BD606A40F40020606201205C
:1012C00032BD0000006600400064004038B50400F4
:1012D00001D1012032BD04F13C056878002804D119
:1012E00000202870204600F038FC02206870211D84
:1012F000206800F0F6F80120A872A870E870287144
:101300006871A871E871287268726870002032BD37
:1013100090F83D10012901D001207047022180F88A
:101320003D100168CA6842F00102CA600068DFF837
:101330005C1088421AD0B0F1804F17D0DFF85010FF
:10134000884213D0DFF84C1088420FD0DFF84810E5
:1013500088420BD0DFF84410884207D0DFF84010F5
:10136000884203D0DFF83C10884209D1816801F03F
:101370000701062908D0016841F00101016003E07E
:10138000016841F001010160002070470000014048
:101390000004004000080040000C00400004014030
:1013A000004001400018004070B504462068C56840
:1013B0000669B10716D5A90714D56FF002010161BE
:1013C000012020772068806910F0030F204602D0AA
:1013D00000F088FD04E000F086FD204600F084FD6A
:1013E00000202077700717D5680715D56FF0040027
:1013F00021680861022020772068806910F4407F0E
:10140000204602D000F06EFD04E000F06CFD2046A6
:1014100000F06AFD00202077300717D5280715D582
:101420006FF0080021680861042020772068C069F7
:1014300010F0030F204602D000F054FD04E000F04D
:1014400052FD204600F050FD00202077F00617D511
:10145000E80615D56FF01000216808610820207794
:101460002068C06910F4407F204602D000F03AFDA9
:1014700004E000F038FD204600F036FD0020207723
:1014800006F0010005F00101084206D06FF00100EE
:10149000216808612046FFF79BF8300608D528062A
:1014A00006D56FF0800021680861204600F01DFD20
:1014B000700608D5680606D56FF0400021680861FF
:1014C000204600F013FDB0060AD5A80608D56FF037
:1014D0002000216808612046BDE8704000F007BD8B
:1014E00070BD10B40468DFF8BC30984212D0B0F17F
:1014F000804F0FD0DFF8B02090420BD0DFF8AC2047
:10150000904207D0DFF8A820904203D0DFF8A42053
:10151000904203D124F070044A681443984221D0C9
:10152000B0F1804F1ED0DFF8802090421AD01F4AC1
:10153000904217D01E4A904214D01E4A904211D0B9
:101540001D4A90420ED01D4A90420BD01C4A904238
:1015500008D01C4A904205D01B4A904202D01B4A38
:10156000904203D124F44074CA68144324F08004E8
:101570004A69144304608A68C2620A6882629842B7
:1015800002D00C4A904201D10969016301214161F5
:101590000169C90703D5016949084900016110BC07
:1015A00070470000000001400004004000080040B7
:1015B000000C004000040140004001400044014094
:1015C0000048014000180040001C0040002000407E
:1015D00070B400F13C031A78012A01D102202DE0F9
:1015E00001221A7002225A7005686E68AC6826F0F3
:1015F00070060A6816436E6002681248824214D070
:10160000B2F1804F11D0104882420ED00F48824272
:101610000BD00F48824208D00E48824205D00E48B7
:10162000824202D00D48824204D124F080044868EE
:1016300004439460012058700020187070BC7047FB
:1016400000000000000001400004004000080040CD
:10165000000C004000040140004001400018004020
:1016600038B5040001D1012032BD04F1400568788D
:10167000002804D100202870204600F08AFA242097
:1016800068702068C16821F40051C160204600F0F4
:1016900017F82068016921F49041016120684169CF
:1016A00021F02A0141612068C16841F40051C16004
:1016B0000020686020206870A8700020606332BD40
:1016C00070B5044621680A6922F44052E06802437A
:1016D0000A612168CA682D480240A0680243206957
:1016E000024360690243E0690243CA6021684A69B3
:1016F00022F44072A06902434A612068244988426A
:1017000002D02449884202D1FFF752FC01E0FFF7E2
:1017100044FC626800231921A1FB000125686426AE
:10172000E469B4F5004F18D143EAD273520000F0D7
:10173000C1FA3146B0FBF1F106FB1106F600323674
:101740006420B6FBF0F0420002F4F87202EB0112E2
:1017500000F007008018A86070BD43EA9273920001
:1017600000F0A8FA3146B0FBF1F106FB1106360194
:1017700032366420B6FBF0F000F0F00202EB01120A
:1017800000F00F008018A86070BD0000F369FFFF33
:101790000010014000140140F8B500232DE04FF087
:1017A000080C05E0DFF8B0C16045F8D14FF0070C38
:1017B0000CFA06FC4CEA070C45F824C0674CA668F6
:1017C000D5432E404F68FF0200D51643A660E66859
:1017D0002E404F68BF0200D51643E66066682E4073
:1017E0004F68BF0300D51643666026682E404D68DB
:1017F000ED0300D5164326605B1C0F2B00F2A4807E
:1018000001279F400A683A40BA42F5D15C0003259F
:10181000A540ED434E6806F0030CBCF1010F03D068
:1018200006F00306022E10D186682E40D1F80CC0B7
:101830000CFA04FC4CEA060686604668BE434F6814
:10184000C7F300179F403E4346600E7906F003063B
:10185000032E05D0C6682E408F68A7403E43C66061
:101860000E7906F00306022E15D11E46F60800EB8F
:1018700086073E6A4FEA830C0CF01C0C4FF00F0EEB
:101880000EFA0CFE26EA0E06D1F810E00EFA0CFC59
:101890004CEA06063E6206682E400D7905F0030507
:1018A00005FA04F4264306604C6814F4403FA3D0C4
:1018B000002400942A4C256845F48045256024685E
:1018C00004F480440094009C1C46A408254D55F85F
:1018D00024709E0006F00C064FF00F0C0CFA06FC6C
:1018E00027EA0C07DFF880C0604502D14FF0000CFA
:1018F0005EE7DFF878C0604502D14FF0010C57E792
:10190000DFF86CC0604502D14FF0020C50E7DFF801
:1019100064C0604502D14FF0030C49E7DFF858C0BE
:10192000604502D14FF0040C42E7DFF850C060453B
:1019300002D14FF0050C3BE7DFF844C060457FF46F
:1019400031AF4FF0060C33E7F1BD002A01D08161C1
:101950007047090481617047001C0240003C01404F
:1019600044380240083801400000024000040240B0
:1019700000080240000C0240001002400014024027
:1019800000180240354A13684FF6FF010B40000271
:1019900000F4E060184332490843106070472F4854
:1019A0000068C0F302207047010007D4012200F054
:1019B0001F018A402B49400941F820207047090146
:1019C000020002D4284881547047284802F00F02D0
:1019D000104400F8041C704710B400F00700C0F178
:1019E0000703052B00D30423041D072C01D200207C
:1019F00000E0C01E012404FA03F35B1E194081407D
:101A000004FA00F0401E1040084310BC704710B5A7
:101A1000401EB0F1807F01D3012010BD144C6060E6
:101A20000F214FF0FF30FFF7CAFF0020A060072012
:101A30002060002010BDA5E770B504460D4616468F
:101A4000FFF7ADFF32462946FFF7C6FF01462046A5
:101A5000BDE87040B3E7A7E7D9E700000CED00E070
:101A60000000FA0500E100E000E400E018ED00E00D
:101A700010E000E038B504460E4D4FF47A70297836
:101A8000B0FBF1F00C490968B1FBF0F0FFF7E4FF9F
:101A9000002801D0012032BD102C08D2002221469E
:101AA0004FF0FF30FFF7C8FFAC60002032BD0120CF
:101AB00032BD00BF000000200C00002082B00020DA
:101AC00000904D48416841F480414160416801F413
:101AD00080410091009900210091016841F08051FE
:101AE0000160006800F0805000900098072002B06C
:101AF000FFF7A1BF10B586B004461422002101A84B
:101B0000FFF71CF820683D49884224D1002000904E
:101B10003B48016941F000710161016901F0007108
:101B20000091009900210091016841F008010160D5
:101B3000006800F008000090009803200190022047
:101B4000029000200390032004900920059001A931
:101B50002C48FFF721FE06B010BD00682A498842D4
:101B600000D0704780B5002000902348016841F004
:101B700010010160006800F0100000900098002241
:101B800011463620FFF758FF3620BDE80240FFF728
:101B900062BF10B586B004461422002101A8FEF7EA
:101BA000CDFF20681949884224D1002000901448B4
:101BB000016941F400310161016901F400310091D2
:101BC000009900210091016841F001010160006865
:101BD00000F00100009000980C200190022002907B
:101BE00000200390032004900720059001A90848D5
:101BF000FFF7D2FD06B010BD40380240006400403F
:101C000030380240000C0240001000400044004008
:101C10000000024062F30F2262F31F42401810F0EE
:101C2000030308D0C91A1FD3DB0748BF00F8012DF2
:101C300028BF20F8022D130030B414461546103981
:101C400028BF20E93C00FAD8490728BF20E90C004A
:101C500048BF40F8042D890028BF20F8022D48BF56
:101C600000F8012D30BC7047C91818BF00F8012DCD
:101C7000CB0728BF00F8012D704730B40EE0026892
:101C8000436802440830DC0744BFA9F10104E318AB
:101C900052F8045B43F8045B091FF9D150F8041BA8
:101CA0000029ECD130BC704701484068704700BF44
:101CB00000000020BBBBE1B1B2F5803F80F07E8028
:101CC000022A1ED98C46B1FBF2F102FB11C31B04A0
:101CD00043EA1043B3FBF2FC02FB1C3380B240EA40
:101CE0000343B3FBF2F002FB103240EA0C40002346
:101CF0007047022A05D98446B0FBF2F002FB10C2FD
:101D000070474AB105D100F0010249085FEA30008E
:101D1000704700220023704700F0EAB80B00020071
:101D2000002100207047904271EB030CF6D3B3F50D
:101D3000803F2FD2F0B5B3FA83F7B1FA81F4A7F15F
:101D40000F0E3D1B5340CEF1200602FA0EF2F34176
:101D50005340B5F10F0746D80F3C2C444140C4F125
:101D60002006A040F1414140B1FBF3F603FB161100
:101D7000A2FB0645001BA94102D2761E80185941DC
:101D800080EA010221FA0EF362FA0EF200215A40B3
:101D90003046F0BD30B4B1FBF3FC03FB1C11A2FBD9
:101DA0000C45001BA94103D2ACF1010C801859412C
:101DB00030BC02460B46604600217047B2F1807F7E
:101DC00065D3F0B5B2FA82F7B1FA81F4C7F10F0624
:101DD0003D1B22FA06F307F1110EF24120355A405D
:101DE000B5F10F07B8D94140C4F12006A040F14138
:101DF0004140B1FBF3FC03FB1C11A2FB0C45001B93
:101E0000A94103D2BCF1010C801859410F2F12D304
:101E10000F3FC90341EA5041B1FBF3F603FB161132
:101E2000A2FB0645D4EBC030A94102D2761E801831
:101E3000594146EACC3C07B34140C7F12006B840BF
:101E4000F1414140B1FBF3F603FB1611A2FB06453D
:101E5000001BA94102D2761E8018594180EA010276
:101E600021FA0EF3C7F1200462FA0EF20CFA07F021
:101E70005A402CFA04F13043F0BD80EA010221FA05
:101E80000EF3002162FA0EF260465A40F0BD8C4615
:101E9000B1FBF2F102FB11C31B0243EA1063B3FB77
:101EA000F2FC02FB1C331B024CEA002043EA1063E5
:101EB000B3FBF2FC02FB1C331B024CEA002043EA9A
:101EC0001063B3FBF2FC02FB1C331B024CEA002044
:101ED00043EA1063B3FBF2FC02FB1C324CEA002025
:101EE00000237047704770477047704770477047CE
:101EF000704700000E48016841F4700101600D490F
:101F0000086840F001000860002088600A680A48FC
:101F100002400A6009484860086820F48020086090
:101F20000020C8604FF0006005490860704700005D
:101F300088ED00E000380240FFFFF6FE103000247C
:101F400008ED00E0000000000000000001020304B2
:101F50000607080910B5074979441831064C7C4436
:101F6000163404E00A68081D114488470146A1425E
:101F7000F8D110BD2C0000004C0000004EF6885136
:101F8000CEF20001086840F470000860BFF34F8F84
:101F9000BFF36F8F4FF00070E1EE100A7047000042
:101FA000F7E5FFFF580100001000002000000000CE
:101FB000CBFCFFFF100000008400000000000020A8
:101FC0000000000000F00DF8002801D0FFF7C2FF6C
:101FD000AFF300800020AFF30080FEF7EAF800F0D6
:101FE00002F80120704700F001B8000007463846AB
:101FF00000F002F8FBE7000080B5AFF30080024A72
:1020000011001820ABBEFBE7260002000148804704
:1020100001480047F51E00084D20000802484168AD
:10202000027889184160704700000020FFF7F6BF72
:102030000148FFF7B9B900001000002001000000BE
:1020400000000000100000000024F400AFF3008046
:10205000FFF794FFFFF7B6FF000000000102030442
:10206000FFF7FEBFFFF7FEBFFFF7FEBFFFF7FEBFA4
:10207000FFF7FEBFFFF7FEBFFFF7FEBFFFF7FEBF94
:10208000FFF7FEBFFFF7FEBFFFF7FEBFFFF7FEBF84
:10209000FFF7FEBFFFF7FEBFFFF7FEBFFFF7FEBF74
:1020A000FFF7FEBFFFF7FEBFFFF7FEBFFFF7FEBF64
:1020B000FFF7FEBFFFF7FEBFFFF7FEBFFFF7FEBF54
:1020C000FFF7FEBFFFF7FEBFFFF7FEBFFFF7FEBF44
:1020D000FFF7FEBFFFF7FEBFFFF7FEBFFFF7FEBF34
:1020E000FFF7FEBFFFF7FEBFFFF7FEBFFFF7FEBF24
:1020F000FFF7FEBFFFF7FEBFFFF7FEBFFFF7FEBF14
:10210000FFF7FEBFFFF7FEBFFFF7FEBFFFF7FEBF03
:10211000FFF7FEBFFFF7FEBFFFF7FEBFFFF7FEBFF3
:10212000FFF7FEBFFFF7FEBFFFF7FEBFFFF7FEBFE3
:10213000FFF7FEBFFFF7FEBFFFF7FEBFFFF7FEBFD3
:10214000FFF7FEBFFFF7FEBFFFF7FEBFFFF7FEBFC3
:10215000FFF7FEBFFFF7FEBFFFF7FEBFFFF7FEBFB3
:10216000FFF7FEBFFFF7FEBFFFF7FEBFFFF7FEBFA3
:10217000FFF7FEBFFFF7FEBFFFF7FEBFFFF7FEBF93
:10218000FFF7FEBFFFF7FEBFFFF7FEBFFFF7FEBF83
:10219000FFF7FEBFFFF7FEBFFFF7FEBFFFF7FEBF73
:1021A000FFF7FEBFFFF7FEBFFFF7FEBFFFF7FEBF63
:1021B000FFF7FEBFFFF7FEBFFFF7FEBFFFF7FEBF53
:040000050800204D82
:00000001FF
